{"abi":[{"type":"function","name":"assertExists","inputs":[{"name":"self","type":"tuple","internalType":"struct Variable","components":[{"name":"ty","type":"tuple","internalType":"struct Type","components":[{"name":"kind","type":"TypeKind","internalType":"enum TypeKind"},{"name":"isArray","type":"bool","internalType":"bool"}]},{"name":"data","type":"bytes","internalType":"bytes"}]}],"outputs":[],"stateMutability":"pure"},{"type":"error","name":"NotInitialized","inputs":[]},{"type":"error","name":"TypeMismatch","inputs":[{"name":"expected","type":"string","internalType":"string"},{"name":"actual","type":"string","internalType":"string"}]},{"type":"error","name":"UnsafeCast","inputs":[{"name":"message","type":"string","internalType":"string"}]}],"bytecode":{"object":"0x61024a610034600b8282823980515f1a607314602857634e487b7160e01b5f525f60045260245ffd5b305f52607381538281f3fe7300000000000000000000000000000000000000003014608060405260043610610034575f3560e01c806315af8fee14610038575b5f5ffd5b61004b61004636600461014b565b61004d565b005b5f815151600781111561006257610062610200565b03610080576040516321c4e35760e21b815260040160405180910390fd5b50565b634e487b7160e01b5f52604160045260245ffd5b6040805190810167ffffffffffffffff811182821017156100ba576100ba610083565b60405290565b5f82601f8301126100cf575f5ffd5b813567ffffffffffffffff8111156100e9576100e9610083565b604051601f8201601f19908116603f0116810167ffffffffffffffff8111828210171561011857610118610083565b60405281815283820160200185101561012f575f5ffd5b816020850160208301375f918101602001919091529392505050565b5f6020828403121561015b575f5ffd5b813567ffffffffffffffff811115610171575f5ffd5b82018084036060811215610183575f5ffd5b61018b610097565b6040821215610198575f5ffd5b6101a0610097565b91508235600881106101b0575f5ffd5b8252602083013580151581146101c4575f5ffd5b602083015290815260408201359067ffffffffffffffff8211156101e6575f5ffd5b6101f2868385016100c0565b602082015295945050505050565b634e487b7160e01b5f52602160045260245ffdfea2646970667358221220e391fba1e3a59f4b7770fbbf4f65ae878295f7e4ffcc205cb6787f494a1b3ffa64736f6c634300081f0033","linkReferences":{}},"methodIdentifiers":{"assertExists(Variable)":"15af8fee"},"id":9}