{"abi":[{"type":"function","name":"advanceKey","inputs":[{"name":"chainId","type":"bytes32","internalType":"bytes32"}],"outputs":[],"stateMutability":"nonpayable"},{"type":"function","name":"chainCount","inputs":[],"outputs":[{"name":"","type":"uint256","internalType":"uint256"}],"stateMutability":"view"},{"type":"function","name":"deactivateChain","inputs":[{"name":"chainId","type":"bytes32","internalType":"bytes32"}],"outputs":[],"stateMutability":"nonpayable"},{"type":"function","name":"getChainInfo","inputs":[{"name":"chainId","type":"bytes32","internalType":"bytes32"}],"outputs":[{"name":"owner","type":"address","internalType":"address"},{"name":"currentIndex","type":"uint256","internalType":"uint256"},{"name":"totalKeys","type":"uint256","internalType":"uint256"},{"name":"usedCount","type":"uint256","internalType":"uint256"},{"name":"active","type":"bool","internalType":"bool"}],"stateMutability":"view"},{"type":"function","name":"getCurrentPKH","inputs":[{"name":"chainId","type":"bytes32","internalType":"bytes32"}],"outputs":[{"name":"currentPKH","type":"bytes32","internalType":"bytes32"}],"stateMutability":"view"},{"type":"function","name":"getNextPKH","inputs":[{"name":"chainId","type":"bytes32","internalType":"bytes32"}],"outputs":[{"name":"nextPKH","type":"bytes32","internalType":"bytes32"}],"stateMutability":"view"},{"type":"function","name":"getOwnerChains","inputs":[{"name":"owner","type":"address","internalType":"address"}],"outputs":[{"name":"chainIds","type":"bytes32[]","internalType":"bytes32[]"}],"stateMutability":"view"},{"type":"function","name":"getRemainingKeys","inputs":[{"name":"chainId","type":"bytes32","internalType":"bytes32"}],"outputs":[{"name":"remaining","type":"uint256","internalType":"uint256"}],"stateMutability":"view"},{"type":"function","name":"keyChains","inputs":[{"name":"","type":"bytes32","internalType":"bytes32"}],"outputs":[{"name":"currentIndex","type":"uint256","internalType":"uint256"},{"name":"usedCount","type":"uint256","internalType":"uint256"},{"name":"owner","type":"address","internalType":"address"},{"name":"active","type":"bool","internalType":"bool"}],"stateMutability":"view"},{"type":"function","name":"ownerChains","inputs":[{"name":"","type":"address","internalType":"address"},{"name":"","type":"uint256","internalType":"uint256"}],"outputs":[{"name":"","type":"bytes32","internalType":"bytes32"}],"stateMutability":"view"},{"type":"function","name":"registerKeyChain","inputs":[{"name":"pkhs","type":"bytes32[]","internalType":"bytes32[]"}],"outputs":[{"name":"chainId","type":"bytes32","internalType":"bytes32"}],"stateMutability":"nonpayable"},{"type":"function","name":"usedPKHs","inputs":[{"name":"","type":"bytes32","internalType":"bytes32"}],"outputs":[{"name":"","type":"bool","internalType":"bool"}],"stateMutability":"view"},{"type":"event","name":"KeyChainDeactivated","inputs":[{"name":"chainId","type":"bytes32","indexed":true,"internalType":"bytes32"}],"anonymous":false},{"type":"event","name":"KeyChainRegistered","inputs":[{"name":"chainId","type":"bytes32","indexed":true,"internalType":"bytes32"},{"name":"owner","type":"address","indexed":true,"internalType":"address"},{"name":"keyCount","type":"uint256","indexed":false,"internalType":"uint256"}],"anonymous":false},{"type":"event","name":"KeyUsed","inputs":[{"name":"chainId","type":"bytes32","indexed":true,"internalType":"bytes32"},{"name":"pkh","type":"bytes32","indexed":true,"internalType":"bytes32"},{"name":"index","type":"uint256","indexed":false,"internalType":"uint256"}],"anonymous":false},{"type":"error","name":"ChainExhausted","inputs":[]},{"type":"error","name":"ChainNotActive","inputs":[]},{"type":"error","name":"ChainNotFound","inputs":[]},{"type":"error","name":"EmptyKeyArray","inputs":[]},{"type":"error","name":"InvalidPKH","inputs":[]},{"type":"error","name":"NotChainOwner","inputs":[]},{"type":"error","name":"PKHAlreadyUsed","inputs":[]}],"bytecode":{"object":"0x6080604052348015600e575f5ffd5b50610a108061001c5f395ff3fe608060405234801561000f575f5ffd5b50600436106100b1575f3560e01c80637e482f471161006e5780637e482f47146101a0578063ba8285c81461021f578063c61663b014610232578063c911015314610245578063ce051de914610277578063e02e1bfd14610297575f5ffd5b806314c0a9b3146100b5578063226b09d4146100db57806352f4e24c146100f0578063650e270d1461010357806372530be814610116578063758b9ac01461018d575b5f5ffd5b6100c86100c3366004610848565b6102a0565b6040519081526020015b60405180910390f35b6100ee6100e9366004610848565b6102d9565b005b6100c86100fe36600461087a565b610410565b6100c8610111366004610848565b61043b565b61015c610124366004610848565b5f602081905290815260409020600181015460028201546003909201549091906001600160a01b03811690600160a01b900460ff1684565b6040516100d2949392919093845260208401929092526001600160a01b031660408301521515606082015260800190565b6100ee61019b366004610848565b6104c2565b6101eb6101ae366004610848565b5f9081526020819052604090206003810154600182015482546002909301546001600160a01b038316949193929091600160a01b90910460ff1690565b604080516001600160a01b03909616865260208601949094529284019190915260608301521515608082015260a0016100d2565b6100c861022d366004610848565b610539565b6100c86102403660046108a2565b6105be565b610267610253366004610848565b60026020525f908152604090205460ff1681565b60405190151581526020016100d2565b61028a610285366004610913565b610782565b6040516100d2919061092c565b6100c860035481565b5f81815260208190526040812080546001820154106102c157505f92915050565b600181015481546102d29190610982565b9392505050565b5f81815260208190526040902060038101546001600160a01b03163314610313576040516311c29acf60e31b815260040160405180910390fd5b6003810154600160a01b900460ff1661033f5760405163296be49760e21b815260040160405180910390fd5b80546001820154106103645760405163808a06c360e01b815260040160405180910390fd5b5f815f0182600101548154811061037d5761037d61099b565b5f9182526020808320919091015480835260028252604092839020805460ff1916600190811790915585015492519283529250829185917f7d0402de2cf7f137719bb73adbc7b842122bcb06cf27096b796c7fa97b8ba6c5910160405180910390a3600182018054905f6103f0836109af565b9091555050600282018054905f610406836109af565b9190505550505050565b6001602052815f5260405f208181548110610429575f80fd5b905f5260205f20015f91509150505481565b5f8181526020819052604081206003810154600160a01b900460ff166104745760405163296be49760e21b815260040160405180910390fd5b80546001820154106104995760405163808a06c360e01b815260040160405180910390fd5b805f018160010154815481106104b1576104b161099b565b905f5260205f200154915050919050565b5f81815260208190526040902060038101546001600160a01b031633146104fc576040516311c29acf60e31b815260040160405180910390fd5b60038101805460ff60a01b1916905560405182907f46ca817d1172b69a5e4504d8366d7cd293e43183141862ae6fa8a5648b206479905f90a25050565b5f8181526020819052604081206003810154600160a01b900460ff166105725760405163296be49760e21b815260040160405180910390fd5b5f8160010154600161058491906109c7565b8254909150811061059857505f9392505050565b815f0181815481106105ac576105ac61099b565b905f5260205f20015492505050919050565b5f8181036105df57604051630415ffdf60e11b815260040160405180910390fd5b5f5b82811015610678575f8484838181106105fc576105fc61099b565b9050602002013503610621576040516311ebfe4960e11b815260040160405180910390fd5b60025f8585848181106106365761063661099b565b602090810292909201358352508101919091526040015f205460ff1615610670576040516365a91d6360e11b815260040160405180910390fd5b6001016105e1565b506003805433915f610689836109af565b9091555060405160609290921b6bffffffffffffffffffffffff19166020830152603482015242605482015260740160408051601f1981840301815291815281516020928301205f8181529283905291209091506106e88185856107eb565b505f60018083018290556002830182905560038301805460ff60a01b19339081166001600160a81b031990921691909117600160a01b17909155808352602082815260408085208054948501815585529320909101849055905183907ff092799d5f881c9c29000722f7668f043316940a8af4d460d785f821c0a8872a906107739087815260200190565b60405180910390a35092915050565b6001600160a01b0381165f908152600160209081526040918290208054835181840281018401909452808452606093928301828280156107df57602002820191905f5260205f20905b8154815260200190600101908083116107cb575b50505050509050919050565b828054828255905f5260205f20908101928215610824579160200282015b82811115610824578235825591602001919060010190610809565b50610830929150610834565b5090565b5b80821115610830575f8155600101610835565b5f60208284031215610858575f5ffd5b5035919050565b80356001600160a01b0381168114610875575f5ffd5b919050565b5f5f6040838503121561088b575f5ffd5b6108948361085f565b946020939093013593505050565b5f5f602083850312156108b3575f5ffd5b823567ffffffffffffffff8111156108c9575f5ffd5b8301601f810185136108d9575f5ffd5b803567ffffffffffffffff8111156108ef575f5ffd5b8560208260051b8401011115610903575f5ffd5b6020919091019590945092505050565b5f60208284031215610923575f5ffd5b6102d28261085f565b602080825282518282018190525f918401906040840190835b81811015610963578351835260209384019390920191600101610945565b509095945050505050565b634e487b7160e01b5f52601160045260245ffd5b818103818111156109955761099561096e565b92915050565b634e487b7160e01b5f52603260045260245ffd5b5f600182016109c0576109c061096e565b5060010190565b808201808211156109955761099561096e56fea2646970667358221220619374ccad14e74a69730f7a6f8ae718921b095bcee85fcb8315cfd2fffad7a664736f6c634300081f0033","linkReferences":{}},"methodIdentifiers":{"advanceKey(bytes32)":"226b09d4","chainCount()":"e02e1bfd","deactivateChain(bytes32)":"758b9ac0","getChainInfo(bytes32)":"7e482f47","getCurrentPKH(bytes32)":"650e270d","getNextPKH(bytes32)":"ba8285c8","getOwnerChains(address)":"ce051de9","getRemainingKeys(bytes32)":"14c0a9b3","keyChains(bytes32)":"72530be8","ownerChains(address,uint256)":"52f4e24c","registerKeyChain(bytes32[])":"c61663b0","usedPKHs(bytes32)":"c9110153"},"id":2}