{"abi":[{"type":"function","name":"doSomething","inputs":[{"name":"message","type":"bytes32","internalType":"bytes32"},{"name":"signature","type":"bytes32[]","internalType":"bytes32[]"}],"outputs":[],"stateMutability":"nonpayable"},{"type":"function","name":"getPKH","inputs":[],"outputs":[{"name":"","type":"bytes32","internalType":"bytes32"}],"stateMutability":"view"},{"type":"function","name":"pubKey","inputs":[{"name":"","type":"uint256","internalType":"uint256"},{"name":"","type":"uint256","internalType":"uint256"}],"outputs":[{"name":"","type":"bytes32","internalType":"bytes32"}],"stateMutability":"view"},{"type":"function","name":"pubKeySet","inputs":[],"outputs":[{"name":"","type":"bool","internalType":"bool"}],"stateMutability":"view"},{"type":"function","name":"setPubKey","inputs":[{"name":"_pubKey","type":"bytes32[2][256]","internalType":"bytes32[2][256]"}],"outputs":[],"stateMutability":"nonpayable"},{"type":"function","name":"verifyBits","inputs":[{"name":"bits","type":"uint256","internalType":"uint256"},{"name":"sig","type":"bytes[256]","internalType":"bytes[256]"},{"name":"pub","type":"bytes32[2][256]","internalType":"bytes32[2][256]"}],"outputs":[{"name":"","type":"bool","internalType":"bool"}],"stateMutability":"view"},{"type":"event","name":"PublicKeySet","inputs":[{"name":"pkh","type":"bytes32","indexed":false,"internalType":"bytes32"}],"anonymous":false},{"type":"event","name":"SignatureVerified","inputs":[{"name":"message","type":"bytes32","indexed":true,"internalType":"bytes32"}],"anonymous":false},{"type":"error","name":"InvalidSignature","inputs":[]},{"type":"error","name":"PublicKeyNotSet","inputs":[]}],"bytecode":{"object":"0x6080604052348015600e575f5ffd5b506109d48061001c5f395ff3fe608060405234801561000f575f5ffd5b5060043610610060575f3560e01c806319a5ac141461006457806320728ff7146100795780636ed10fbb1461009f578063810fb999146100a757806385ee97c9146100ca578063dcd03f8e146100d8575b5f5ffd5b6100776100723660046106a4565b6100eb565b005b61008c61008736600461075c565b6101c4565b6040519081526020015b60405180910390f35b61008c6101ed565b6100ba6100b536600461077c565b61025a565b6040519015158152602001610096565b610200546100ba9060ff1681565b6100776100e63660046107dd565b610359565b6102005460ff1661010f57604051637762ac1b60e11b815260040160405180910390fd5b60408051612000810190915261017990839083905f61010081835b8282101561017057604080518082019182905290600284810287019182845b8154815260200190600101908083116101495750505050508152602001906001019061012a565b505050506103b3565b61019657604051638baa579f60e01b815260040160405180910390fd5b60405182907fd9a01e7bf811f4f05330ff17f0e80904283f16e92f7bb5470b91831ee32b7eef905f90a25050565b5f8261010081106101d3575f80fd5b6002020181600281106101e4575f80fd5b01549150829050565b6040805161200081019091525f90610255908261010081835b8282101561024c57604080518082019182905290600284810287019182845b81548152602001906001019080831161022557505050505081526020019060010190610206565b505050506104c8565b905090565b610200545f9060ff1661028057604051637762ac1b60e11b815260040160405180910390fd5b816040516020016102919190610889565b60408051601f198184030181528282528051602090910120612000830190915290610303905f61010081835b8282101561024c57604080518082019182905290600284810287019182845b8154815260200190600101908083116102dc575050505050815260200190600101906102bd565b146103445760405162461bcd60e51b815260206004820152600c60248201526b0a0969040dad2e6dac2e8c6d60a31b60448201526064015b60405180910390fd5b61034f8484846104f7565b90505b9392505050565b6103665f826101006105ac565b50610200805460ff191660011790557fa49220642d6058063888fb1925f816b5aae6fc1dbb99e73840386cafb434671a61039f826104c8565b60405190815260200160405180910390a150565b5f8251610100146104125760405162461bcd60e51b8152602060048201526024808201527f4c616d706f72744c69623a20696e76616c6964207369676e6174757265206c656044820152630dccee8d60e31b606482015260840161033b565b835f5b6101008110156104bc575f61042b8260ff6108c0565b83901c600116905084826101008110610446576104466108e5565b6020020151816002811061045c5761045c6108e5565b6020020151868381518110610473576104736108e5565b602002602001015160405160200161048d91815260200190565b60405160208183030381529060405280519060200120146104b3575f9350505050610352565b50600101610415565b50600195945050505050565b5f816040516020016104da91906108f9565b604051602081830303815290604052805190602001209050919050565b5f5f5b6101008110156105a1575f5f8260ff036001901b87161161051b575f61051e565b60015b60ff16905083826101008110610536576105366108e5565b60400201816002811061054b5761054b6108e5565b602002013585836101008110610563576105636108e5565b6020028101906105739190610945565b60405161058192919061098f565b604051809103902014610598575f92505050610352565b506001016104fa565b506001949350505050565b610200830191839082156105e8579160200282015b828111156105e85782516105d890839060026105f8565b50916020019190600201906105c1565b506105f4929150610632565b5090565b8260028101928215610626579160200282015b8281111561062657825182559160200191906001019061060b565b506105f492915061064b565b808211156105f4575f8082556001820155600201610632565b5b808211156105f4575f815560010161064c565b634e487b7160e01b5f52604160045260245ffd5b604051601f8201601f1916810167ffffffffffffffff8111828210171561069c5761069c61065f565b604052919050565b5f5f604083850312156106b5575f5ffd5b82359150602083013567ffffffffffffffff8111156106d2575f5ffd5b8301601f810185136106e2575f5ffd5b803567ffffffffffffffff8111156106fc576106fc61065f565b8060051b61070c60208201610673565b91825260208184018101929081019088841115610727575f5ffd5b6020850194505b8385101561074d5784358083526020958601959093509091019061072e565b80955050505050509250929050565b5f5f6040838503121561076d575f5ffd5b50508035926020909101359150565b5f5f5f614040848603121561078f575f5ffd5b83359250602084013567ffffffffffffffff8111156107ac575f5ffd5b840161200081018610156107be575f5ffd5b915061404084018510156107d0575f5ffd5b6040840190509250925092565b5f61400082840312156107ee575f5ffd5b82601f8301126107fc575f5ffd5b61200061080881610673565b90508061400084018581111561081c575f5ffd5b8460405b8282101561087d5787601f830112610836575f5ffd5b61083f81610673565b808284018a81111561084f575f5ffd5b845b81811015610869578035845260209384019301610851565b505086525060209094019390810190610820565b50919695505050505050565b5f8183825b6101008110156108b0576040828437604092830192919091019060010161088e565b5050506140008201905092915050565b818103818111156108df57634e487b7160e01b5f52601160045260245ffd5b92915050565b634e487b7160e01b5f52603260045260245ffd5b5f8183825b6101008110156108b0578151835f5b600281101561092c57825182526020928301929091019060010161090d565b50505060409290920191602091909101906001016108fe565b5f5f8335601e1984360301811261095a575f5ffd5b83018035915067ffffffffffffffff821115610974575f5ffd5b602001915036819003821315610988575f5ffd5b9250929050565b818382375f910190815291905056fea264697066735822122092b0fca462ca9253a25bf79d5f0109ca6240c87c743b3a208cf0db19a552e8d264736f6c634300081f0033","linkReferences":{}},"methodIdentifiers":{"doSomething(bytes32,bytes32[])":"19a5ac14","getPKH()":"6ed10fbb","pubKey(uint256,uint256)":"20728ff7","pubKeySet()":"85ee97c9","setPubKey(bytes32[2][256])":"dcd03f8e","verifyBits(uint256,bytes[256],bytes32[2][256])":"810fb999"},"id":6}