{"abi":[{"type":"function","name":"verifyBranchless","inputs":[{"name":"bits","type":"uint256","internalType":"uint256"},{"name":"sig","type":"bytes32[256]","internalType":"bytes32[256]"},{"name":"pub","type":"bytes32[2][256]","internalType":"bytes32[2][256]"}],"outputs":[{"name":"valid","type":"bool","internalType":"bool"}],"stateMutability":"pure"},{"type":"function","name":"verifyFast","inputs":[{"name":"bits","type":"uint256","internalType":"uint256"},{"name":"sig","type":"bytes32[256]","internalType":"bytes32[256]"},{"name":"pub","type":"bytes32[2][256]","internalType":"bytes32[2][256]"}],"outputs":[{"name":"valid","type":"bool","internalType":"bool"}],"stateMutability":"pure"},{"type":"function","name":"verifyUnrolled","inputs":[{"name":"bits","type":"uint256","internalType":"uint256"},{"name":"sig","type":"bytes32[256]","internalType":"bytes32[256]"},{"name":"pub","type":"bytes32[2][256]","internalType":"bytes32[2][256]"}],"outputs":[{"name":"valid","type":"bool","internalType":"bool"}],"stateMutability":"pure"}],"bytecode":{"object":"0x6080604052348015600e575f5ffd5b506102f98061001c5f395ff3fe608060405234801561000f575f5ffd5b506004361061003f575f3560e01c80636506d2c114610043578063816cbf5d1461006a57806393d3ae501461007d575b5f5ffd5b61005661005136600461027a565b610090565b604051901515815260200160405180910390f35b61005661007836600461027a565b6100fc565b61005661008b36600461027a565b610227565b6040516001906004355f5b6101008110156100f2578060ff03600183821c16905060208202602401803590508085525060208420602082026040840201612024019150813591508181146100e8575f955050506100f2565b505060010161009b565b5050509392505050565b6040516001906004355f5b6101008110156100f2578060ff03600183821c169050602082026024018035855250602084206020820260408402016120240191508135811461014e575f955050506100f2565b5050600181018060ff03600184821c1690506020820260240180358652506020852060208202604084020161202401925082358114610192575f96505050506100f2565b505050600281018060ff03600184821c16905060208202602401803586525060208520602082026040840201612024019250823581146101d7575f96505050506100f2565b505050600381018060ff03600184821c169050602082026024018035865250602085206020820260408402016120240192508235811461021c575f96505050506100f2565b505050600401610107565b5f6040516004355f5f5b61010081101561026e576020818102602401358552808520600160ff84900386901c81169092026040840201612024013518929092179101610231565b50159695505050505050565b5f5f5f616020848603121561028d575f5ffd5b833592506120208401858111156102a2575f5ffd5b60208501925085616020860111156102b8575f5ffd5b80915050925092509256fea2646970667358221220c91da198f7b3f7aacfc24b9891edceecc777bdef135117976b30fb8f29438f0a64736f6c634300081f0033","linkReferences":{}},"methodIdentifiers":{"verifyBranchless(uint256,bytes32[256],bytes32[2][256])":"93d3ae50","verifyFast(uint256,bytes32[256],bytes32[2][256])":"6506d2c1","verifyUnrolled(uint256,bytes32[256],bytes32[2][256])":"816cbf5d"},"id":5}