{"abi":[{"type":"function","name":"computeMessage","inputs":[{"name":"safeTxHash","type":"bytes32","internalType":"bytes32"},{"name":"nextPKH","type":"bytes32","internalType":"bytes32"}],"outputs":[{"name":"m","type":"uint256","internalType":"uint256"}],"stateMutability":"view"},{"type":"function","name":"computePKH","inputs":[{"name":"pub","type":"bytes32[2][256]","internalType":"bytes32[2][256]"}],"outputs":[{"name":"pkh","type":"bytes32","internalType":"bytes32"}],"stateMutability":"pure"},{"type":"function","name":"verify","inputs":[{"name":"bits","type":"uint256","internalType":"uint256"},{"name":"sig","type":"bytes[256]","internalType":"bytes[256]"},{"name":"pub","type":"bytes32[2][256]","internalType":"bytes32[2][256]"}],"outputs":[{"name":"valid","type":"bool","internalType":"bool"}],"stateMutability":"pure"},{"type":"function","name":"verifyThreshold","inputs":[{"name":"safeTxHash","type":"bytes32","internalType":"bytes32"},{"name":"nextPKH","type":"bytes32","internalType":"bytes32"},{"name":"sig","type":"bytes[256]","internalType":"bytes[256]"},{"name":"pub","type":"bytes32[2][256]","internalType":"bytes32[2][256]"},{"name":"expectedPKH","type":"bytes32","internalType":"bytes32"}],"outputs":[{"name":"valid","type":"bool","internalType":"bool"}],"stateMutability":"view"},{"type":"function","name":"verifyWithPKH","inputs":[{"name":"bits","type":"uint256","internalType":"uint256"},{"name":"sig","type":"bytes[256]","internalType":"bytes[256]"},{"name":"pub","type":"bytes32[2][256]","internalType":"bytes32[2][256]"},{"name":"expectedPKH","type":"bytes32","internalType":"bytes32"}],"outputs":[{"name":"valid","type":"bool","internalType":"bool"}],"stateMutability":"pure"},{"type":"event","name":"SignatureVerified","inputs":[{"name":"messageHash","type":"bytes32","indexed":true,"internalType":"bytes32"},{"name":"pkh","type":"bytes32","indexed":true,"internalType":"bytes32"},{"name":"valid","type":"bool","indexed":false,"internalType":"bool"}],"anonymous":false},{"type":"error","name":"InvalidPublicKey","inputs":[{"name":"expected","type":"bytes32","internalType":"bytes32"},{"name":"actual","type":"bytes32","internalType":"bytes32"}]},{"type":"error","name":"InvalidSignature","inputs":[]}],"bytecode":{"object":"0x6080604052348015600e575f5ffd5b506106098061001c5f395ff3fe608060405234801561000f575f5ffd5b5060043610610055575f3560e01c8063099ace0914610059578063939b815114610081578063bc7b225514610094578063bf54242c146100b5578063f94d12db146100c8575b5f5ffd5b61006c6100673660046103b5565b6100db565b60405190151581526020015b60405180910390f35b61006c61008f36600461041c565b610176565b6100a76100a236600461047a565b6101e9565b604051908152602001610078565b6100a76100c336600461049a565b6101ff565b61006c6100d63660046104b5565b610248565b6040805161200081019091525f90819061013c908561010084835b82821015610133576040805180820182529080840286019060029083908390808284375f92019190915250505081526001909101906020016100f6565b5050505061025e565b905082811461014e575f91505061016d565b5f61015b8888304661028d565b90506101688187876102de565b925050505b95945050505050565b60408051612040810182525f9182916101c09186906101009085908490612000820190859060029083908390808284375f92019190915250505081526001909101906020016100f6565b90508281146101d2575f9150506101e1565b6101dd8686866102de565b9150505b949350505050565b5f6101f68383304661028d565b90505b92915050565b60408051612040810182525f916101f9919084906101009085908490612000820190859060029083908390808284375f92019190915250505081526001909101906020016100f6565b5f6102548484846102de565b90505b9392505050565b5f81604051602001610270919061050a565b604051602081830303815290604052805190602001209050919050565b60408051602080820196909652808201949094526bffffffffffffffffffffffff19606093841b16928401929092526074808401919091528151808403909101815260949092019052805191012090565b5f5f5b610100811015610388575f5f8260ff036001901b871611610302575f610305565b60015b60ff1690508382610100811061031d5761031d610566565b60400201816002811061033257610332610566565b60200201358583610100811061034a5761034a610566565b60200281019061035a919061057a565b6040516103689291906105c4565b60405180910390201461037f575f92505050610257565b506001016102e1565b506001949350505050565b8061200081018310156101f9575f5ffd5b8061400081018310156101f9575f5ffd5b5f5f5f5f5f61408086880312156103ca575f5ffd5b8535945060208601359350604086013567ffffffffffffffff8111156103ee575f5ffd5b6103fa88828901610393565b93505061040a87606088016103a4565b94979396509194614060013592915050565b5f5f5f5f6140608587031215610430575f5ffd5b84359350602085013567ffffffffffffffff81111561044d575f5ffd5b61045987828801610393565b93505061046986604087016103a4565b939692955092936140400135925050565b5f5f6040838503121561048b575f5ffd5b50508035926020909101359150565b5f61400082840312156104ab575f5ffd5b6101f683836103a4565b5f5f5f61404084860312156104c8575f5ffd5b83359250602084013567ffffffffffffffff8111156104e5575f5ffd5b6104f186828701610393565b92505061050185604086016103a4565b90509250925092565b5f8183825b610100811015610556578151835f5b600281101561053d57825182526020928301929091019060010161051e565b505050604092909201916020919091019060010161050f565b5050506140008201905092915050565b634e487b7160e01b5f52603260045260245ffd5b5f5f8335601e1984360301811261058f575f5ffd5b83018035915067ffffffffffffffff8211156105a9575f5ffd5b6020019150368190038213156105bd575f5ffd5b9250929050565b818382375f910190815291905056fea26469706673582212201fa27ff4a2843fa7f0d14e1a4ab39c74569fdf2f63d37b9fcbc3d00aff634eb164736f6c634300081f0033","linkReferences":{}},"methodIdentifiers":{"computeMessage(bytes32,bytes32)":"bc7b2255","computePKH(bytes32[2][256])":"bf54242c","verify(uint256,bytes[256],bytes32[2][256])":"f94d12db","verifyThreshold(bytes32,bytes32,bytes[256],bytes32[2][256],bytes32)":"099ace09","verifyWithPKH(uint256,bytes[256],bytes32[2][256],bytes32)":"939b8151"},"id":7}