{"abi":[{"type":"constructor","inputs":[{"name":"_safe","type":"address","internalType":"address"}],"stateMutability":"nonpayable"},{"type":"function","name":"computeMessageHash","inputs":[{"name":"to","type":"address","internalType":"address"},{"name":"value","type":"uint256","internalType":"uint256"},{"name":"data","type":"bytes","internalType":"bytes"},{"name":"operation","type":"uint8","internalType":"uint8"},{"name":"nextPKH","type":"bytes32","internalType":"bytes32"}],"outputs":[{"name":"m","type":"uint256","internalType":"uint256"}],"stateMutability":"view"},{"type":"function","name":"exec","inputs":[{"name":"to","type":"address","internalType":"address"},{"name":"value","type":"uint256","internalType":"uint256"},{"name":"data","type":"bytes","internalType":"bytes"},{"name":"sig","type":"bytes[256]","internalType":"bytes[256]"},{"name":"currentPub","type":"bytes32[2][256]","internalType":"bytes32[2][256]"},{"name":"nextPKH","type":"bytes32","internalType":"bytes32"}],"outputs":[{"name":"success","type":"bool","internalType":"bool"}],"stateMutability":"nonpayable"},{"type":"function","name":"execWithLamport","inputs":[{"name":"to","type":"address","internalType":"address"},{"name":"value","type":"uint256","internalType":"uint256"},{"name":"data","type":"bytes","internalType":"bytes"},{"name":"operation","type":"uint8","internalType":"uint8"},{"name":"sig","type":"bytes[256]","internalType":"bytes[256]"},{"name":"currentPub","type":"bytes32[2][256]","internalType":"bytes32[2][256]"},{"name":"nextPKH","type":"bytes32","internalType":"bytes32"}],"outputs":[{"name":"success","type":"bool","internalType":"bool"}],"stateMutability":"nonpayable"},{"type":"function","name":"getPKH","inputs":[],"outputs":[{"name":"","type":"bytes32","internalType":"bytes32"}],"stateMutability":"view"},{"type":"function","name":"init","inputs":[{"name":"initialPkh","type":"bytes32","internalType":"bytes32"}],"outputs":[],"stateMutability":"nonpayable"},{"type":"function","name":"initialized","inputs":[],"outputs":[{"name":"","type":"bool","internalType":"bool"}],"stateMutability":"view"},{"type":"function","name":"isInitialized","inputs":[],"outputs":[{"name":"","type":"bool","internalType":"bool"}],"stateMutability":"view"},{"type":"function","name":"lamportNonce","inputs":[],"outputs":[{"name":"","type":"uint256","internalType":"uint256"}],"stateMutability":"view"},{"type":"function","name":"pkh","inputs":[],"outputs":[{"name":"","type":"bytes32","internalType":"bytes32"}],"stateMutability":"view"},{"type":"function","name":"safe","inputs":[],"outputs":[{"name":"","type":"address","internalType":"address"}],"stateMutability":"view"},{"type":"event","name":"LamportExecuted","inputs":[{"name":"safeTxHash","type":"bytes32","indexed":true,"internalType":"bytes32"},{"name":"nextPkh","type":"bytes32","indexed":true,"internalType":"bytes32"},{"name":"nonce","type":"uint256","indexed":false,"internalType":"uint256"}],"anonymous":false},{"type":"event","name":"LamportInitialized","inputs":[{"name":"initialPkh","type":"bytes32","indexed":true,"internalType":"bytes32"}],"anonymous":false},{"type":"event","name":"LamportKeyRotated","inputs":[{"name":"oldPkh","type":"bytes32","indexed":true,"internalType":"bytes32"},{"name":"newPkh","type":"bytes32","indexed":true,"internalType":"bytes32"}],"anonymous":false},{"type":"error","name":"AlreadyInitialized","inputs":[]},{"type":"error","name":"InvalidLamportSignature","inputs":[]},{"type":"error","name":"InvalidPublicKey","inputs":[]},{"type":"error","name":"NotInitialized","inputs":[]},{"type":"error","name":"OnlySafe","inputs":[]}],"bytecode":{"object":"0x60a060405234801561000f575f5ffd5b50604051610e8f380380610e8f83398101604081905261002e91610099565b6001600160a01b0381166100885760405162461bcd60e51b815260206004820152601b60248201527f4c616d706f72744d6f64756c653a207a65726f20616464726573730000000000604482015260640160405180910390fd5b6001600160a01b03166080526100c6565b5f602082840312156100a9575f5ffd5b81516001600160a01b03811681146100bf575f5ffd5b9392505050565b608051610d966100f95f395f818160c60152818161018a0152818161027b0152818161046a01526105b40152610d965ff3fe608060405234801561000f575f5ffd5b506004361061009b575f3560e01c80635f384225116100635780635f3842251461013657806366a47bfb146101495780636a685e3a1461015c5780636ed10fbb14610165578063cd0fb1b31461016c575f5ffd5b8063158ef93e1461009f578063186f0354146100c1578063392e53cd146101005780633b6631951461010b5780633cbf389314610120575b5f5ffd5b6001546100ac9060ff1681565b60405190151581526020015b60405180910390f35b6100e87f000000000000000000000000000000000000000000000000000000000000000081565b6040516001600160a01b0390911681526020016100b8565b60015460ff166100ac565b61011e6101193660046107a2565b61017f565b005b6101285f5481565b6040519081526020016100b8565b610128610144366004610829565b610277565b6100ac6101573660046108c5565b610334565b61012860025481565b5f54610128565b6100ac61017a366004610967565b6103a7565b336001600160a01b037f000000000000000000000000000000000000000000000000000000000000000016146101c85760405163d7fed6bd60e01b815260040160405180910390fd5b60015460ff16156101eb5760405162dc149f60e41b815260040160405180910390fd5b8061023c5760405162461bcd60e51b815260206004820152601760248201527f4c616d706f72744d6f64756c653a207a65726f20504b48000000000000000000604482015260640160405180910390fd5b5f8181556001805460ff19168117905560405182917ff83bf9e0a6257495710d3a8dd8849575a48f412e4e06b158ab01360d30dc290291a250565b5f5f7f00000000000000000000000000000000000000000000000000000000000000006001600160a01b031663d8d11f7889898989895f5f5f5f5f6002546040518c63ffffffff1660e01b81526004016102db9b9a99989796959493929190610a41565b602060405180830381865afa1580156102f6573d5f5f3e3d5ffd5b505050506040513d601f19601f8201168201806040525081019061031a9190610ab4565b90506103288184304661066b565b98975050505050505050565b60405163cd0fb1b360e01b81525f90309063cd0fb1b390610367908b908b908b908b9088908c908c908c90600401610af6565b6020604051808303815f875af1158015610383573d5f5f3e3d5ffd5b505050506040513d601f19601f820116820180604052508101906103289190610bd7565b6001545f9060ff166103cc576040516321c4e35760e21b815260040160405180910390fd5b6040805161200081019091525f9061042b908561010084835b82821015610422576040805180820182529080840286019060029083908390808284375f92019190915250505081526001909101906020016103e5565b505050506106bc565b90505f54811461044e5760405163145a1fdd60e31b815260040160405180910390fd5b600254604051631b1a23ef60e31b81525f916001600160a01b037f0000000000000000000000000000000000000000000000000000000000000000169163d8d11f78916104b1918f918f918f918f918f918a918291829182918291600401610a41565b602060405180830381865afa1580156104cc573d5f5f3e3d5ffd5b505050506040513d601f19601f820116820180604052508101906104f09190610ab4565b90505f6104ff8286304661066b565b905061050c8188886106eb565b61052957604051630dbc2bdf60e11b815260040160405180910390fd5b5f805486825560028054919261053e83610c0a565b9091555050604051869082907f7abd04341ca4fa109bdfe5f4350efb88488e5a9253db95d3b19d1ff6592b361e905f90a385837ffd39c0345819c8cb423e22447cb682f42d870deabfd1b5c5981bdd0b7aac2fc960016002546105a19190610c22565b60405190815260200160405180910390a37f00000000000000000000000000000000000000000000000000000000000000006001600160a01b031663468721a78e8e8e8e8e60ff1660018111156105fa576105fa610c35565b6040518663ffffffff1660e01b815260040161061a959493929190610c49565b6020604051808303815f875af1158015610636573d5f5f3e3d5ffd5b505050506040513d601f19601f8201168201806040525081019061065a9190610bd7565b9d9c50505050505050505050505050565b60408051602080820196909652808201949094526bffffffffffffffffffffffff19606093841b16928401929092526074808401919091528151808403909101815260949092019052805191012090565b5f816040516020016106ce9190610c9e565b604051602081830303815290604052805190602001209050919050565b5f5f5b610100811015610795575f5f8260ff036001901b87161161070f575f610712565b60015b60ff1690508382610100811061072a5761072a610cfa565b60400201816002811061073f5761073f610cfa565b60200201358583610100811061075757610757610cfa565b6020028101906107679190610d0e565b604051610775929190610d51565b60405180910390201461078c575f9250505061079b565b506001016106ee565b50600190505b9392505050565b5f602082840312156107b2575f5ffd5b5035919050565b80356001600160a01b03811681146107cf575f5ffd5b919050565b5f5f83601f8401126107e4575f5ffd5b50813567ffffffffffffffff8111156107fb575f5ffd5b602083019150836020828501011115610812575f5ffd5b9250929050565b803560ff811681146107cf575f5ffd5b5f5f5f5f5f5f60a0878903121561083e575f5ffd5b610847876107b9565b955060208701359450604087013567ffffffffffffffff811115610869575f5ffd5b61087589828a016107d4565b9095509350610888905060608801610819565b95989497509295919493608090920135925050565b8061200081018310156108ae575f5ffd5b92915050565b8061400081018310156108ae575f5ffd5b5f5f5f5f5f5f5f6140a0888a0312156108dc575f5ffd5b6108e5886107b9565b965060208801359550604088013567ffffffffffffffff811115610907575f5ffd5b6109138a828b016107d4565b909650945050606088013567ffffffffffffffff811115610932575f5ffd5b61093e8a828b0161089d565b93505061094e8960808a016108b4565b9699959850939692959194919350506140809091013590565b5f5f5f5f5f5f5f5f6140c0898b03121561097f575f5ffd5b610988896107b9565b975060208901359650604089013567ffffffffffffffff8111156109aa575f5ffd5b6109b68b828c016107d4565b90975095506109c9905060608a01610819565b9350608089013567ffffffffffffffff8111156109e4575f5ffd5b6109f08b828c0161089d565b935050610a008a60a08b016108b4565b979a96995094979396929591945091926140a001359150565b81835281816020850137505f828201602090810191909152601f909101601f19169091010190565b60018060a01b038c1681528a602082015261014060408201525f610a6a61014083018b8d610a19565b60ff99909916606083015250608081019690965260a086019490945260c08501929092526001600160a01b0390811660e08501521661010083015261012090910152949350505050565b5f60208284031215610ac4575f5ffd5b5051919050565b805f5b610100811015610af05760408285376040938401939190910190600101610ace565b50505050565b60018060a01b03891681528760208201526140c060408201525f610b1f6140c08301888a610a19565b60ff871660608401528281036080840152806120008101875f36829003601e19015b610100821015610bad5785840385528235818112610b5d575f5ffd5b8b0160208101903567ffffffffffffffff811115610b79575f5ffd5b803603821315610b87575f5ffd5b610b92868284610a19565b95505050602083019250602085019450600182019150610b41565b505050809350505050610bc360a0830185610acb565b826140a08301529998505050505050505050565b5f60208284031215610be7575f5ffd5b8151801515811461079b575f5ffd5b634e487b7160e01b5f52601160045260245ffd5b5f60018201610c1b57610c1b610bf6565b5060010190565b818103818111156108ae576108ae610bf6565b634e487b7160e01b5f52602160045260245ffd5b60018060a01b0386168152846020820152608060408201525f610c70608083018587610a19565b905060028310610c8e57634e487b7160e01b5f52602160045260245ffd5b8260608301529695505050505050565b5f8183825b610100811015610cea578151835f5b6002811015610cd1578251825260209283019290910190600101610cb2565b5050506040929092019160209190910190600101610ca3565b5050506140008201905092915050565b634e487b7160e01b5f52603260045260245ffd5b5f5f8335601e19843603018112610d23575f5ffd5b83018035915067ffffffffffffffff821115610d3d575f5ffd5b602001915036819003821315610812575f5ffd5b818382375f910190815291905056fea26469706673582212208c7942ac36e24a8c29c25b95531c21cf2e241b3394afc3ca0b6aded0bc7cb97c64736f6c634300081f0033","linkReferences":{}},"methodIdentifiers":{"computeMessageHash(address,uint256,bytes,uint8,bytes32)":"5f384225","exec(address,uint256,bytes,bytes[256],bytes32[2][256],bytes32)":"66a47bfb","execWithLamport(address,uint256,bytes,uint8,bytes[256],bytes32[2][256],bytes32)":"cd0fb1b3","getPKH()":"6ed10fbb","init(bytes32)":"3b663195","initialized()":"158ef93e","isInitialized()":"392e53cd","lamportNonce()":"6a685e3a","pkh()":"3cbf3893","safe()":"186f0354"},"id":4}