{"abi":[{"type":"constructor","inputs":[{"name":"configFilePath","type":"string","internalType":"string"},{"name":"writeToFile","type":"bool","internalType":"bool"}],"stateMutability":"nonpayable"},{"type":"function","name":"get","inputs":[{"name":"key","type":"string","internalType":"string"}],"outputs":[{"name":"","type":"tuple","internalType":"struct Variable","components":[{"name":"ty","type":"tuple","internalType":"struct Type","components":[{"name":"kind","type":"uint8","internalType":"enum TypeKind"},{"name":"isArray","type":"bool","internalType":"bool"}]},{"name":"data","type":"bytes","internalType":"bytes"}]}],"stateMutability":"view"},{"type":"function","name":"get","inputs":[{"name":"chain_id","type":"uint256","internalType":"uint256"},{"name":"key","type":"string","internalType":"string"}],"outputs":[{"name":"","type":"tuple","internalType":"struct Variable","components":[{"name":"ty","type":"tuple","internalType":"struct Type","components":[{"name":"kind","type":"uint8","internalType":"enum TypeKind"},{"name":"isArray","type":"bool","internalType":"bool"}]},{"name":"data","type":"bytes","internalType":"bytes"}]}],"stateMutability":"view"},{"type":"function","name":"getChainIds","inputs":[],"outputs":[{"name":"","type":"uint256[]","internalType":"uint256[]"}],"stateMutability":"view"},{"type":"function","name":"getRpcUrl","inputs":[],"outputs":[{"name":"","type":"string","internalType":"string"}],"stateMutability":"view"},{"type":"function","name":"getRpcUrl","inputs":[{"name":"chainId","type":"uint256","internalType":"uint256"}],"outputs":[{"name":"","type":"string","internalType":"string"}],"stateMutability":"view"},{"type":"function","name":"resolveChainId","inputs":[{"name":"aliasOrId","type":"string","internalType":"string"}],"outputs":[{"name":"","type":"uint256","internalType":"uint256"}],"stateMutability":"view"},{"type":"function","name":"set","inputs":[{"name":"chainId","type":"uint256","internalType":"uint256"},{"name":"key","type":"string","internalType":"string"},{"name":"value","type":"int256","internalType":"int256"}],"outputs":[],"stateMutability":"nonpayable"},{"type":"function","name":"set","inputs":[{"name":"chainId","type":"uint256","internalType":"uint256"},{"name":"key","type":"string","internalType":"string"},{"name":"value","type":"bytes32[]","internalType":"bytes32[]"}],"outputs":[],"stateMutability":"nonpayable"},{"type":"function","name":"set","inputs":[{"name":"chainId","type":"uint256","internalType":"uint256"},{"name":"key","type":"string","internalType":"string"},{"name":"value","type":"uint256","internalType":"uint256"}],"outputs":[],"stateMutability":"nonpayable"},{"type":"function","name":"set","inputs":[{"name":"key","type":"string","internalType":"string"},{"name":"value","type":"bytes","internalType":"bytes"}],"outputs":[],"stateMutability":"nonpayable"},{"type":"function","name":"set","inputs":[{"name":"key","type":"string","internalType":"string"},{"name":"value","type":"bytes32","internalType":"bytes32"}],"outputs":[],"stateMutability":"nonpayable"},{"type":"function","name":"set","inputs":[{"name":"key","type":"string","internalType":"string"},{"name":"value","type":"int256","internalType":"int256"}],"outputs":[],"stateMutability":"nonpayable"},{"type":"function","name":"set","inputs":[{"name":"chainId","type":"uint256","internalType":"uint256"},{"name":"key","type":"string","internalType":"string"},{"name":"value","type":"bytes","internalType":"bytes"}],"outputs":[],"stateMutability":"nonpayable"},{"type":"function","name":"set","inputs":[{"name":"key","type":"string","internalType":"string"},{"name":"value","type":"string[]","internalType":"string[]"}],"outputs":[],"stateMutability":"nonpayable"},{"type":"function","name":"set","inputs":[{"name":"chainId","type":"uint256","internalType":"uint256"},{"name":"key","type":"string","internalType":"string"},{"name":"value","type":"address","internalType":"address"}],"outputs":[],"stateMutability":"nonpayable"},{"type":"function","name":"set","inputs":[{"name":"chainId","type":"uint256","internalType":"uint256"},{"name":"key","type":"string","internalType":"string"},{"name":"value","type":"address[]","internalType":"address[]"}],"outputs":[],"stateMutability":"nonpayable"},{"type":"function","name":"set","inputs":[{"name":"chainId","type":"uint256","internalType":"uint256"},{"name":"key","type":"string","internalType":"string"},{"name":"value","type":"string","internalType":"string"}],"outputs":[],"stateMutability":"nonpayable"},{"type":"function","name":"set","inputs":[{"name":"key","type":"string","internalType":"string"},{"name":"value","type":"uint256[]","internalType":"uint256[]"}],"outputs":[],"stateMutability":"nonpayable"},{"type":"function","name":"set","inputs":[{"name":"key","type":"string","internalType":"string"},{"name":"value","type":"address[]","internalType":"address[]"}],"outputs":[],"stateMutability":"nonpayable"},{"type":"function","name":"set","inputs":[{"name":"key","type":"string","internalType":"string"},{"name":"value","type":"uint256","internalType":"uint256"}],"outputs":[],"stateMutability":"nonpayable"},{"type":"function","name":"set","inputs":[{"name":"chainId","type":"uint256","internalType":"uint256"},{"name":"key","type":"string","internalType":"string"},{"name":"value","type":"int256[]","internalType":"int256[]"}],"outputs":[],"stateMutability":"nonpayable"},{"type":"function","name":"set","inputs":[{"name":"chainId","type":"uint256","internalType":"uint256"},{"name":"key","type":"string","internalType":"string"},{"name":"value","type":"bytes[]","internalType":"bytes[]"}],"outputs":[],"stateMutability":"nonpayable"},{"type":"function","name":"set","inputs":[{"name":"key","type":"string","internalType":"string"},{"name":"value","type":"address","internalType":"address"}],"outputs":[],"stateMutability":"nonpayable"},{"type":"function","name":"set","inputs":[{"name":"chainId","type":"uint256","internalType":"uint256"},{"name":"key","type":"string","internalType":"string"},{"name":"value","type":"bool","internalType":"bool"}],"outputs":[],"stateMutability":"nonpayable"},{"type":"function","name":"set","inputs":[{"name":"key","type":"string","internalType":"string"},{"name":"value","type":"bool","internalType":"bool"}],"outputs":[],"stateMutability":"nonpayable"},{"type":"function","name":"set","inputs":[{"name":"key","type":"string","internalType":"string"},{"name":"value","type":"bytes[]","internalType":"bytes[]"}],"outputs":[],"stateMutability":"nonpayable"},{"type":"function","name":"set","inputs":[{"name":"chainId","type":"uint256","internalType":"uint256"},{"name":"key","type":"string","internalType":"string"},{"name":"value","type":"bytes32","internalType":"bytes32"}],"outputs":[],"stateMutability":"nonpayable"},{"type":"function","name":"set","inputs":[{"name":"chainId","type":"uint256","internalType":"uint256"},{"name":"key","type":"string","internalType":"string"},{"name":"value","type":"string[]","internalType":"string[]"}],"outputs":[],"stateMutability":"nonpayable"},{"type":"function","name":"set","inputs":[{"name":"chainId","type":"uint256","internalType":"uint256"},{"name":"key","type":"string","internalType":"string"},{"name":"value","type":"uint256[]","internalType":"uint256[]"}],"outputs":[],"stateMutability":"nonpayable"},{"type":"function","name":"set","inputs":[{"name":"key","type":"string","internalType":"string"},{"name":"value","type":"int256[]","internalType":"int256[]"}],"outputs":[],"stateMutability":"nonpayable"},{"type":"function","name":"set","inputs":[{"name":"chainId","type":"uint256","internalType":"uint256"},{"name":"key","type":"string","internalType":"string"},{"name":"value","type":"bool[]","internalType":"bool[]"}],"outputs":[],"stateMutability":"nonpayable"},{"type":"function","name":"set","inputs":[{"name":"key","type":"string","internalType":"string"},{"name":"value","type":"bytes32[]","internalType":"bytes32[]"}],"outputs":[],"stateMutability":"nonpayable"},{"type":"function","name":"set","inputs":[{"name":"key","type":"string","internalType":"string"},{"name":"value","type":"string","internalType":"string"}],"outputs":[],"stateMutability":"nonpayable"},{"type":"function","name":"set","inputs":[{"name":"key","type":"string","internalType":"string"},{"name":"value","type":"bool[]","internalType":"bool[]"}],"outputs":[],"stateMutability":"nonpayable"},{"type":"function","name":"writeUpdatesBackToFile","inputs":[{"name":"enabled","type":"bool","internalType":"bool"}],"outputs":[],"stateMutability":"nonpayable"},{"type":"error","name":"AlreadyInitialized","inputs":[{"name":"key","type":"string","internalType":"string"}]},{"type":"error","name":"ChainNotInitialized","inputs":[{"name":"chainId","type":"uint256","internalType":"uint256"}]},{"type":"error","name":"InvalidChainKey","inputs":[{"name":"aliasOrId","type":"string","internalType":"string"}]},{"type":"error","name":"TypeMismatch","inputs":[{"name":"expected","type":"string","internalType":"string"},{"name":"actual","type":"string","internalType":"string"}]},{"type":"error","name":"UnableToParseVariable","inputs":[{"name":"key","type":"string","internalType":"string"}]},{"type":"error","name":"WriteToFileInForbiddenCtxt","inputs":[]}],"bytecode":{"object":"0x608060405234801561000f575f5ffd5b50604051615c82380380615c8283398101604081905261002e916118c2565b8080156100a757506040516364af255d60e01b81525f516020615c625f395f51905f52906364af255d90610066906004908101611920565b602060405180830381865afa158015610081573d5f5f3e3d5ffd5b505050506040513d601f19601f820116820180604052508101906100a59190611946565b155b156100c5576040516305d79a4360e31b815260040160405180910390fd5b5f6100d083826119ea565b506005805460ff19168215151790556040516360f9bb1160e01b81525f905f516020615c625f395f51905f529063ddd2128d9082906360f9bb1190610119908890600401611ad2565b5f60405180830381865afa158015610133573d5f5f3e3d5ffd5b505050506040513d5f823e601f3d908101601f1916820160405261015a9190810190611ae4565b6040518263ffffffff1660e01b81526004016101769190611ad2565b5f604051808303815f875af1158015610191573d5f5f3e3d5ffd5b505050506040513d5f823e601f3d908101601f191682016040526101b89190810190611ae4565b604051634095225960e11b81529091505f905f516020615c625f395f51905f529063812a44b2906101ed908590600401611b1d565b5f60405180830381865afa158015610207573d5f5f3e3d5ffd5b505050506040513d5f823e601f3d908101601f1916820160405261022e9190810190611b74565b90505f5b815181101561074d575f82828151811061024e5761024e611c28565b602002602001015190507f885cb69240a935d632d79c317109709ecfa91a80626ff3989d68f67f5b1dd12d5f1c6001600160a01b031663812a44b2858360405160200161029b9190611c53565b6040516020818303038152906040526040518363ffffffff1660e01b81526004016102c7929190611c69565b5f60405180830381865afa1580156102e1573d5f5f3e3d5ffd5b505050506040513d5f823e601f3d908101601f191682016040526103089190810190611b74565b515f036103155750610745565b5f61031f82610757565b6001805480820182555f919091529091507fb10e2d527612073b26eecdfd717e6a320cf44b4afac2b0732d9fcbe2b7fa0cf60161035c83826119ea565b506040515f516020615c625f395f51905f5290638bb8dd43908790610385908690602001611c96565b6040516020818303038152906040526040518363ffffffff1660e01b81526004016103b1929190611c69565b5f60405180830381865afa9250505080156103ed57506040513d5f823e601f3d908101601f191682016040526103ea9190810190611ae4565b60015b6104e65760405163975a6ce960e01b81525f516020615c625f395f51905f529063ddd2128d90829063975a6ce990610429908790600401611ad2565b5f60405180830381865afa158015610443573d5f5f3e3d5ffd5b505050506040513d5f823e601f3d908101601f1916820160405261046a9190810190611ae4565b6040518263ffffffff1660e01b81526004016104869190611ad2565b5f604051808303815f875af11580156104a1573d5f5f3e3d5ffd5b505050506040513d5f823e601f3d908101601f191682016040526104c89190810190611ae4565b5f828152600260205260409020906104e090826119ea565b50610573565b60405163ddd2128d60e01b81525f516020615c625f395f51905f529063ddd2128d90610516908490600401611ad2565b5f604051808303815f875af1158015610531573d5f5f3e3d5ffd5b505050506040513d5f823e601f3d908101601f191682016040526105589190810190611ae4565b5f8381526002602052604090209061057090826119ea565b50505b60015b600760ff821611610741575f8160ff1660078111156105975761059761190c565b90505f846105b58360078111156105b0576105b061190c565b610866565b6040516020016105c6929190611cc9565b60408051601f1981840301815290829052634095225960e11b825291505f516020615c625f395f51905f529063812a44b290610608908b908590600401611c69565b5f60405180830381865afa92505050801561064457506040513d5f823e601f3d908101601f191682016040526106419190810190611b74565b60015b1561072c575f5b8151811015610729575f82828151811061066757610667611c28565b602002602001015190505f60078111156106835761068361190c565b5f8881526004602052604090819020905161069f908490611cf3565b9081526040519081900360200190205460ff1660078111156106c3576106c361190c565b036106fc576106f78b85836040516020016106df929190611cfe565b60408051601f19818403018152919052898489610a1f565b610720565b8060405163038a07f760e51b81526004016107179190611ad2565b60405180910390fd5b5060010161064b565b50505b5050808061073990611d09565b915050610576565b5050505b600101610232565b5050505050612204565b60405163fa91454d60e01b81525f905f516020615c625f395f51905f529063fa91454d90610789908590600401611ad2565b602060405180830381865afa9250505080156107c2575060408051601f3d908101601f191682019092526107bf91810190611d33565b60015b61085b57604051634cc1c2bb60e01b81525f516020615c625f395f51905f5290634cc1c2bb906107f6908590600401611ad2565b5f60405180830381865afa92505050801561083257506040513d5f823e601f3d908101601f1916820160405261082f9190810190611d4a565b60015b61085157816040516397aa94df60e01b81526004016107179190611ad2565b6020015192915050565b92915050565b919050565b6060600182600781111561087c5761087c61190c565b036108a1575050604080518082019091526004815263189bdbdb60e21b602082015290565b60028260078111156108b5576108b561190c565b036108dd5750506040805180820190915260078152666164647265737360c81b602082015290565b60038260078111156108f1576108f161190c565b03610919575050604080518082019091526007815266313cba32b9999960c91b602082015290565b600482600781111561092d5761092d61190c565b036109525750506040805180820190915260048152631d5a5b9d60e21b602082015290565b60058260078111156109665761096661190c565b0361098a5750506040805180820190915260038152621a5b9d60ea1b602082015290565b600682600781111561099e5761099e61190c565b036109c5575050604080518082019091526006815265737472696e6760d01b602082015290565b60078260078111156109d9576109d961190c565b036109ff575050604080518082019091526005815264627974657360d81b602082015290565b50506040805180820190915260048152636e6f6e6560e01b602082015290565b5f6001826007811115610a3457610a3461190c565b03610c8257604051636986e76b60e11b81525f516020615c625f395f51905f529063d30dced690610a6b9089908990600401611c69565b602060405180830381865afa925050508015610aa4575060408051601f3d908101601f19168201909252610aa191810190611946565b60015b610bfc5760405163093e7f4d60e11b81525f516020615c625f395f51905f529063127cfe9a90610ada9089908990600401611c69565b5f60405180830381865afa925050508015610b1657506040513d5f823e601f3d908101601f19168201604052610b139190810190611e12565b60015b15610bf75780604051602001610b2c9190611ea9565b60408051601f198184030181528282525f8881526003602052919091209091610b56908790611cf3565b90815260200160405180910390209081610b7091906119ea565b50604080518082019091528060015b815260016020918201525f87815260049091526040908190209051610ba5908790611cf3565b90815260405190819003602001902081518154829060ff19166001836007811115610bd257610bd261190c565b02179055506020919091015181549015156101000261ff001990911617905550600190505b6117ae565b6040805182151560208201520160408051601f198184030181528282525f8881526003602052919091209091610c33908790611cf3565b90815260200160405180910390209081610c4d91906119ea565b50604080518082019091528060015b81525f602091820181905287815260049091526040908190209051610ba5908790611cf3565b6002826007811115610c9657610c9661190c565b03610e5057604051631979f21160e21b81525f516020615c625f395f51905f52906365e7c84490610ccd9089908990600401611c69565b602060405180830381865afa925050508015610d06575060408051601f3d908101601f19168201909252610d0391810190611f03565b60015b610de5576040516365c428e760e01b81525f516020615c625f395f51905f52906365c428e790610d3c9089908990600401611c69565b5f60405180830381865afa925050508015610d7857506040513d5f823e601f3d908101601f19168201604052610d759190810190611f1c565b60015b15610bf75780604051602001610d8e9190611fa9565b60408051601f198184030181528282525f8881526003602052919091209091610db8908790611cf3565b90815260200160405180910390209081610dd291906119ea565b5060408051808201909152806002610b7f565b604080516001600160a01b03831660208201520160408051601f198184030181528282525f8881526003602052919091209091610e23908790611cf3565b90815260200160405180910390209081610e3d91906119ea565b5060408051808201909152806002610c5c565b6003826007811115610e6457610e6461190c565b03611016576040516308e2148160e41b81525f516020615c625f395f51905f5290638e21481090610e9b9089908990600401611c69565b602060405180830381865afa925050508015610ed4575060408051601f3d908101601f19168201909252610ed191810190611d33565b60015b610fb357604051633e716f8160e01b81525f516020615c625f395f51905f5290633e716f8190610f0a9089908990600401611c69565b5f60405180830381865afa925050508015610f4657506040513d5f823e601f3d908101601f19168201604052610f439190810190611fe9565b60015b15610bf75780604051602001610f5c919061206f565b60408051601f198184030181528282525f8881526003602052919091209091610f86908790611cf3565b90815260200160405180910390209081610fa091906119ea565b5060408051808201909152806003610b7f565b60408051602081018390520160408051601f198184030181528282525f8881526003602052919091209091610fe9908790611cf3565b9081526020016040518091039020908161100391906119ea565b5060408051808201909152806003610c5c565b600482600781111561102a5761102a61190c565b036111dc5760405163cc7b048760e01b81525f516020615c625f395f51905f529063cc7b0487906110619089908990600401611c69565b602060405180830381865afa92505050801561109a575060408051601f3d908101601f1916820190925261109791810190611d33565b60015b611179576040516316bbe4f960e31b81525f516020615c625f395f51905f529063b5df27c8906110d09089908990600401611c69565b5f60405180830381865afa92505050801561110c57506040513d5f823e601f3d908101601f191682016040526111099190810190611fe9565b60015b15610bf75780604051602001611122919061206f565b60408051601f198184030181528282525f888152600360205291909120909161114c908790611cf3565b9081526020016040518091039020908161116691906119ea565b5060408051808201909152806004610b7f565b60408051602081018390520160408051601f198184030181528282525f88815260036020529190912090916111af908790611cf3565b908152602001604051809103902090816111c991906119ea565b5060408051808201909152806004610c5c565b60058260078111156111f0576111f061190c565b036113a25760405163c135073960e01b81525f516020615c625f395f51905f529063c1350739906112279089908990600401611c69565b602060405180830381865afa925050508015611260575060408051601f3d908101601f1916820190925261125d91810190611d33565b60015b61133f576040516369a9157360e11b81525f516020615c625f395f51905f529063d3522ae6906112969089908990600401611c69565b5f60405180830381865afa9250505080156112d257506040513d5f823e601f3d908101601f191682016040526112cf9190810190611fe9565b60015b15610bf757806040516020016112e8919061206f565b60408051601f198184030181528282525f8881526003602052919091209091611312908790611cf3565b9081526020016040518091039020908161132c91906119ea565b5060408051808201909152806005610b7f565b60408051602081018390520160408051601f198184030181528282525f8881526003602052919091209091611375908790611cf3565b9081526020016040518091039020908161138f91906119ea565b5060408051808201909152806005610c5c565b60078260078111156113b6576113b661190c565b036115705760405163d77bfdb960e01b81525f516020615c625f395f51905f529063d77bfdb9906113ed9089908990600401611c69565b5f60405180830381865afa92505050801561142957506040513d5f823e601f3d908101601f191682016040526114269190810190611ae4565b60015b6115085760405163b197c24760e01b81525f516020615c625f395f51905f529063b197c2479061145f9089908990600401611c69565b5f60405180830381865afa92505050801561149b57506040513d5f823e601f3d908101601f1916820160405261149891908101906120a6565b60015b15610bf757806040516020016114b1919061214a565b60408051601f198184030181528282525f88815260036020529190912090916114db908790611cf3565b908152602001604051809103902090816114f591906119ea565b5060408051808201909152806007610b7f565b806040516020016115199190611ad2565b60408051601f198184030181528282525f8881526003602052919091209091611543908790611cf3565b9081526020016040518091039020908161155d91906119ea565b5060408051808201909152806007610c5c565b60068260078111156115845761158461190c565b036117ae57604051638bb8dd4360e01b81525f516020615c625f395f51905f5290638bb8dd43906115bb9089908990600401611c69565b5f60405180830381865afa9250505080156115f757506040513d5f823e601f3d908101601f191682016040526115f49190810190611ae4565b60015b6116d657604051639f62928160e01b81525f516020615c625f395f51905f5290639f6292819061162d9089908990600401611c69565b5f60405180830381865afa92505050801561166957506040513d5f823e601f3d908101601f191682016040526116669190810190611b74565b60015b15610bf7578060405160200161167f91906121ad565b60408051601f198184030181528282525f88815260036020529190912090916116a9908790611cf3565b908152602001604051809103902090816116c391906119ea565b5060408051808201909152806006610b7f565b806040516020016116e79190611ad2565b60408051601f198184030181528282525f8881526003602052919091209091611711908790611cf3565b9081526020016040518091039020908161172b91906119ea565b50604080518082018252600681525f602080830182905288825260049052829020915190919061175c908790611cf3565b90815260405190819003602001902081518154829060ff191660018360078111156117895761178961190c565b02179055506020919091015181549015156101000261ff001990911617905550600190505b806117ce578260405163ea00fa1360e01b81526004016107179190611ad2565b505050505050565b634e487b7160e01b5f52604160045260245ffd5b604051608081016001600160401b038111828210171561180c5761180c6117d6565b60405290565b604051601f8201601f191681016001600160401b038111828210171561183a5761183a6117d6565b604052919050565b5f82601f830112611851575f5ffd5b8151602083015f806001600160401b03841115611870576118706117d6565b50601f8301601f191660200161188581611812565b915050828152858383011115611899575f5ffd5b8282602083015e5f92810160200192909252509392505050565b80518015158114610861575f5ffd5b5f5f604083850312156118d3575f5ffd5b82516001600160401b038111156118e8575f5ffd5b6118f485828601611842565b925050611903602084016118b3565b90509250929050565b634e487b7160e01b5f52602160045260245ffd5b602081016009831061194057634e487b7160e01b5f52602160045260245ffd5b91905290565b5f60208284031215611956575f5ffd5b61195f826118b3565b9392505050565b600181811c9082168061197a57607f821691505b60208210810361199857634e487b7160e01b5f52602260045260245ffd5b50919050565b601f8211156119e557805f5260205f20601f840160051c810160208510156119c35750805b601f840160051c820191505b818110156119e2575f81556001016119cf565b50505b505050565b81516001600160401b03811115611a0357611a036117d6565b611a1781611a118454611966565b8461199e565b6020601f821160018114611a49575f8315611a325750848201515b5f19600385901b1c1916600184901b1784556119e2565b5f84815260208120601f198516915b82811015611a785787850151825560209485019460019092019101611a58565b5084821015611a9557868401515f19600387901b60f8161c191681555b50505050600190811b01905550565b5f81518084528060208401602086015e5f602082860101526020601f19601f83011685010191505092915050565b602081525f61195f6020830184611aa4565b5f60208284031215611af4575f5ffd5b81516001600160401b03811115611b09575f5ffd5b611b1584828501611842565b949350505050565b604081525f611b2f6040830184611aa4565b828103602084015260018152600960fa1b60208201526040810191505092915050565b5f6001600160401b03821115611b6a57611b6a6117d6565b5060051b60200190565b5f60208284031215611b84575f5ffd5b81516001600160401b03811115611b99575f5ffd5b8201601f81018413611ba9575f5ffd5b8051611bbc611bb782611b52565b611812565b8082825260208201915060208360051b850101925086831115611bdd575f5ffd5b602084015b83811015611c1d5780516001600160401b03811115611bff575f5ffd5b611c0e89602083890101611842565b84525060209283019201611be2565b509695505050505050565b634e487b7160e01b5f52603260045260245ffd5b5f81518060208401855e5f93019283525090919050565b61121760f11b81525f61195f6002830184611c3c565b604081525f611c7b6040830185611aa4565b8281036020840152611c8d8185611aa4565b95945050505050565b61121760f11b81525f611cac6002830184611c3c565b6c0b995b991c1bda5b9d17dd5c9b609a1b8152600d019392505050565b61121760f11b81525f611cdf6002830185611c3c565b601760f91b8152611c8d6001820185611c3c565b5f61195f8284611c3c565b5f611cdf8285611c3c565b5f60ff821660ff8103611d2a57634e487b7160e01b5f52601160045260245ffd5b60010192915050565b5f60208284031215611d43575f5ffd5b5051919050565b5f60208284031215611d5a575f5ffd5b81516001600160401b03811115611d6f575f5ffd5b820160808185031215611d80575f5ffd5b611d886117ea565b81516001600160401b03811115611d9d575f5ffd5b611da986828501611842565b8252506020828101519082015260408201516001600160401b03811115611dce575f5ffd5b611dda86828501611842565b60408301525060608201516001600160401b03811115611df8575f5ffd5b611e0486828501611842565b606083015250949350505050565b5f60208284031215611e22575f5ffd5b81516001600160401b03811115611e37575f5ffd5b8201601f81018413611e47575f5ffd5b8051611e55611bb782611b52565b8082825260208201915060208360051b850101925086831115611e76575f5ffd5b6020840193505b82841015611e9f57611e8e846118b3565b825260209384019390910190611e7d565b9695505050505050565b602080825282518282018190525f918401906040840190835b81811015611ee25783511515835260209384019390920191600101611ec2565b509095945050505050565b80516001600160a01b0381168114610861575f5ffd5b5f60208284031215611f13575f5ffd5b61195f82611eed565b5f60208284031215611f2c575f5ffd5b81516001600160401b03811115611f41575f5ffd5b8201601f81018413611f51575f5ffd5b8051611f5f611bb782611b52565b8082825260208201915060208360051b850101925086831115611f80575f5ffd5b6020840193505b82841015611e9f57611f9884611eed565b825260209384019390910190611f87565b602080825282518282018190525f918401906040840190835b81811015611ee25783516001600160a01b0316835260209384019390920191600101611fc2565b5f60208284031215611ff9575f5ffd5b81516001600160401b0381111561200e575f5ffd5b8201601f8101841361201e575f5ffd5b805161202c611bb782611b52565b8082825260208201915060208360051b85010192508683111561204d575f5ffd5b6020840193505b82841015611e9f578351825260209384019390910190612054565b602080825282518282018190525f918401906040840190835b81811015611ee2578351835260209384019390920191600101612088565b5f602082840312156120b6575f5ffd5b81516001600160401b038111156120cb575f5ffd5b8201601f810184136120db575f5ffd5b80516120e9611bb782611b52565b8082825260208201915060208360051b85010192508683111561210a575f5ffd5b602084015b83811015611c1d5780516001600160401b0381111561212c575f5ffd5b61213b89602083890101611842565b8452506020928301920161210f565b5f602082016020835280845180835260408501915060408160051b8601019250602086015f5b828110156121a157603f1987860301845261218c858351611aa4565b94506020938401939190910190600101612170565b50929695505050505050565b5f602082016020835280845180835260408501915060408160051b8601019250602086015f5b828110156121a157603f198786030184526121ef858351611aa4565b945060209384019391909101906001016121d3565b613a51806122115f395ff3fe608060405234801561000f575f5ffd5b5060043610610208575f3560e01c8063805da4ad1161011f578063cf1cfa99116100a9578063de0fc9b311610079578063de0fc9b314610470578063e298d00b14610483578063e605325014610496578063e942b516146104a9578063fa3c074a146104bc575f5ffd5b8063cf1cfa9914610424578063cf72a2f314610437578063d6698dc41461044a578063db0075df1461045d575f5ffd5b806393dbe6e0116100ef57806393dbe6e0146103c5578063a815ff15146103d8578063b3a64001146103eb578063ba0ff22c146103fe578063c91ca7ba14610411575f5ffd5b8063805da4ad1461037957806388c63d451461038c5780638a42ebe91461039f5780638be19924146103b2575f5ffd5b806343ec8b6a116101a057806361141c971161017057806361141c971461030d5780636556095014610320578063693ec85e146103335780637b8fed81146103535780637df3ef1214610366575f5ffd5b806343ec8b6a146102bf5780634d85ce80146102d457806359b39526146102e75780635eba0df0146102fa575f5ffd5b80632b29c0fa116101db5780632b29c0fa146102655780632e3196a5146102785780632ef8ba741461028b5780633f3a75881461029e575f5ffd5b806307d79d9a1461020c57806308f7b4b2146102215780631d7763231461023457806322dc48fd14610252575b5f5ffd5b61021f61021a366004612aef565b6104cf565b005b61021f61022f366004612bc2565b6105e6565b61023c6107d9565b6040516102499190612c2d565b60405180910390f35b61021f610260366004612aef565b61094a565b61021f610273366004612c6f565b610a14565b61021f610286366004612cd2565b610a91565b61021f610299366004612cd2565b610b0a565b6102b16102ac366004612d13565b610b83565b604051908152602001610249565b6102c7610c9b565b6040516102499190612d7a565b61021f6102e2366004612d8c565b610da8565b61021f6102f5366004612e6b565b610e7a565b61021f610308366004612eda565b610ef3565b61021f61031b366004612f8e565b610fd1565b61021f61032e366004612d8c565b61113e565b610346610341366004612d13565b6111e4565b6040516102499190613003565b61021f610361366004613048565b611280565b6102c76103743660046130a1565b6112f9565b6103466103873660046130b8565b611398565b61021f61039a3660046130e5565b6114fc565b61021f6103ad366004612cd2565b611575565b61021f6103c0366004612bc2565b6115ee565b61021f6103d336600461313e565b61178c565b61021f6103e636600461319f565b6118ea565b61021f6103f93660046131f9565b611963565b61021f61040c36600461324f565b611a2f565b61021f61041f366004612e6b565b611aa8565b61021f610432366004612aef565b611b21565b61021f61044536600461313e565b611bef565b61021f61045836600461329d565b611d18565b61021f61046b366004612bc2565b611dc2565b61021f61047e366004613048565b611f60565b61021f61049136600461331c565b611fd9565b61021f6104a4366004613048565b612178565b61021f6104b7366004612c6f565b6121f1565b61021f6104ca36600461337d565b61226a565b60408051808201909152600581525f60208201526104ee8484836122e3565b60408051602081018490520160408051601f198184030181528282525f87815260036020529190912090916105249086906133ed565b9081526020016040518091039020908161053e9190613473565b5060055460ff16156105e0576105e08461056b835f0151600781111561056657610566612fef565b6123e7565b604051635191620760e11b81526004810186905286905f5160206139dc5f395f51905f529063a322c40e906024015b5f60405180830381865afa1580156105b4573d5f5f3e3d5ffd5b505050506040513d5f823e601f3d908101601f191682016040526105db919081019061357a565b6125a0565b50505050565b6040805180820190915260038152600160208201526106068484836122e3565b816040516020016106179190612c2d565b60408051601f198184030181528282525f87815260036020529190912090916106419086906133ed565b9081526020016040518091039020908161065b9190613473565b5060055460ff16156105e0576040805180820190915260018152605b60f81b60208201525f5b835181101561078c578161072a5f5160206139fc5f395f51905f525f1c6001600160a01b031663b11a19e88785815181106106be576106be6135ab565b60200260200101516040518263ffffffff1660e01b81526004016106e491815260200190565b5f60405180830381865afa1580156106fe573d5f5f3e3d5ffd5b505050506040513d5f823e601f3d908101601f19168201604052610725919081019061357a565b61263b565b60405160200161073b9291906135bf565b60405160208183030381529060405291506001845161075a91906135d3565b811015610784578160405160200161077291906135f2565b60405160208183030381529060405291505b600101610681565b508060405160200161079e919061360e565b60405160208183030381529060405290506107d2856107cb845f0151600781111561056657610566612fef565b86846125a0565b5050505050565b60605f6001805480602002602001604051908101604052809291908181526020015f905b828210156108a5578382905f5260205f2001805461081a906133f8565b80601f0160208091040260200160405190810160405280929190818152602001828054610846906133f8565b80156108915780601f1061086857610100808354040283529160200191610891565b820191905f5260205f20905b81548152906001019060200180831161087457829003601f168201915b5050505050815260200190600101906107fd565b5050505090505f81516001600160401b038111156108c5576108c5612a09565b6040519080825280602002602001820160405280156108ee578160200160208202803683370190505b5090505f5b82518110156109435761091e838281518110610911576109116135ab565b6020026020010151610b83565b828281518110610930576109306135ab565b60209081029190910101526001016108f3565b5092915050565b60408051808201909152600481525f60208201526109698484836122e3565b60408051602081018490520160408051601f198184030181528282525f878152600360205291909120909161099f9086906133ed565b908152602001604051809103902090816109b99190613473565b5060055460ff16156105e0576105e0846109e1835f0151600781111561056657610566612fef565b60405163348051d760e11b81526004810186905286905f5160206139dc5f395f51905f5290636900a3ae9060240161059a565b610a8d5f5160206139fc5f395f51905f525f1c6001600160a01b0316633408e4706040518163ffffffff1660e01b8152600401602060405180830381865afa158015610a62573d5f5f3e3d5ffd5b505050506040513d601f19601f82011682018060405250810190610a86919061362a565b8383610da8565b5050565b610a8d5f5160206139fc5f395f51905f525f1c6001600160a01b0316633408e4706040518163ffffffff1660e01b8152600401602060405180830381865afa158015610adf573d5f5f3e3d5ffd5b505050506040513d601f19601f82011682018060405250810190610b03919061362a565b8383611b21565b610a8d5f5160206139fc5f395f51905f525f1c6001600160a01b0316633408e4706040518163ffffffff1660e01b8152600401602060405180830381865afa158015610b58573d5f5f3e3d5ffd5b505050506040513d601f19601f82011682018060405250810190610b7c919061362a565b83836104cf565b60405163fa91454d60e01b81525f905f5160206139dc5f395f51905f529063fa91454d90610bb5908590600401612d7a565b602060405180830381865afa925050508015610bee575060408051601f3d908101601f19168201909252610beb9181019061362a565b60015b610c9057604051634cc1c2bb60e01b81525f5160206139dc5f395f51905f5290634cc1c2bb90610c22908590600401612d7a565b5f60405180830381865afa925050508015610c5e57506040513d5f823e601f3d908101601f19168201604052610c5b9190810190613641565b60015b610c8657816040516397aa94df60e01b8152600401610c7d9190612d7a565b60405180910390fd5b6020015192915050565b92915050565b919050565b606060025f5f5160206139fc5f395f51905f525f1c6001600160a01b0316633408e4706040518163ffffffff1660e01b8152600401602060405180830381865afa158015610ceb573d5f5f3e3d5ffd5b505050506040513d601f19601f82011682018060405250810190610d0f919061362a565b81526020019081526020015f208054610d27906133f8565b80601f0160208091040260200160405190810160405280929190818152602001828054610d53906133f8565b8015610d9e5780601f10610d7557610100808354040283529160200191610d9e565b820191905f5260205f20905b815481529060010190602001808311610d8157829003601f168201915b5050505050905090565b60408051808201909152600781525f6020820152610dc78484836122e3565b81604051602001610dd89190612d7a565b60408051601f198184030181528282525f8781526003602052919091209091610e029086906133ed565b90815260200160405180910390209081610e1c9190613473565b5060055460ff16156105e0576105e084610e44835f0151600781111561056657610566612fef565b6040516371aad10d60e01b815286906105db905f5160206139dc5f395f51905f52906371aad10d906106e4908a90600401612d7a565b610a8d5f5160206139fc5f395f51905f525f1c6001600160a01b0316633408e4706040518163ffffffff1660e01b8152600401602060405180830381865afa158015610ec8573d5f5f3e3d5ffd5b505050506040513d601f19601f82011682018060405250810190610eec919061362a565b8383611bef565b60408051808201909152600281525f6020820152610f128484836122e3565b604080516001600160a01b03841660208201520160408051601f198184030181528282525f8781526003602052919091209091610f509086906133ed565b90815260200160405180910390209081610f6a9190613473565b5060055460ff16156105e0576105e084610f92835f0151600781111561056657610566612fef565b604051632b65311f60e11b81526001600160a01b038616600482015286906105db905f5160206139dc5f395f51905f52906356ca623e906024016106e4565b604080518082019091526002815260016020820152610ff18484836122e3565b816040516020016110029190613709565b60408051601f198184030181528282525f878152600360205291909120909161102c9086906133ed565b908152602001604051809103902090816110469190613473565b5060055460ff16156105e0576040805180820190915260018152605b60f81b60208201525f5b835181101561078c57816110dc5f5160206139fc5f395f51905f525f1c6001600160a01b03166356ca623e8785815181106110a9576110a96135ab565b60200260200101516040518263ffffffff1660e01b81526004016106e491906001600160a01b0391909116815260200190565b6040516020016110ed9291906135bf565b60405160208183030381529060405291506001845161110c91906135d3565b811015611136578160405160200161112491906135f2565b60405160208183030381529060405291505b60010161106c565b60408051808201909152600681525f602082015261115d8484836122e3565b8160405160200161116e9190612d7a565b60408051601f198184030181528282525f87815260036020529190912090916111989086906133ed565b908152602001604051809103902090816111b29190613473565b5060055460ff16156105e0576105e0846111da835f0151600781111561056657610566612fef565b856105db8661263b565b604080516080810182525f91810182815260608083019390935281526020810191909152610c905f5160206139fc5f395f51905f525f1c6001600160a01b0316633408e4706040518163ffffffff1660e01b8152600401602060405180830381865afa158015611256573d5f5f3e3d5ffd5b505050506040513d601f19601f8201168201806040525081019061127a919061362a565b83611398565b610a8d5f5160206139fc5f395f51905f525f1c6001600160a01b0316633408e4706040518163ffffffff1660e01b8152600401602060405180830381865afa1580156112ce573d5f5f3e3d5ffd5b505050506040513d601f19601f820116820180604052508101906112f2919061362a565b8383611dc2565b5f818152600260205260409020805460609190611315906133f8565b80601f0160208091040260200160405190810160405280929190818152602001828054611341906133f8565b801561138c5780601f106113635761010080835404028352916020019161138c565b820191905f5260205f20905b81548152906001019060200180831161136f57829003601f168201915b50505050509050919050565b604080516080810182525f91810182815260608083019390935281526020810191909152604051806040016040528060045f8681526020019081526020015f20846040516113e691906133ed565b908152604080519182900360200182208282019091528054829060ff16600781111561141457611414612fef565b600781111561142557611425612fef565b81529054610100900460ff1615156020918201529082525f868152600382526040908190209051929091019161145c9086906133ed565b90815260200160405180910390208054611475906133f8565b80601f01602080910402602001604051908101604052809291908181526020018280546114a1906133f8565b80156114ec5780601f106114c3576101008083540402835291602001916114ec565b820191905f5260205f20905b8154815290600101906020018083116114cf57829003601f168201915b5050505050815250905092915050565b610a8d5f5160206139fc5f395f51905f525f1c6001600160a01b0316633408e4706040518163ffffffff1660e01b8152600401602060405180830381865afa15801561154a573d5f5f3e3d5ffd5b505050506040513d601f19601f8201168201806040525081019061156e919061362a565b8383610fd1565b610a8d5f5160206139fc5f395f51905f525f1c6001600160a01b0316633408e4706040518163ffffffff1660e01b8152600401602060405180830381865afa1580156115c3573d5f5f3e3d5ffd5b505050506040513d601f19601f820116820180604052508101906115e7919061362a565b838361094a565b60408051808201909152600581526001602082015261160e8484836122e3565b8160405160200161161f9190612c2d565b60408051601f198184030181528282525f87815260036020529190912090916116499086906133ed565b908152602001604051809103902090816116639190613473565b5060055460ff16156105e0576040805180820190915260018152605b60f81b60208201525f5b835181101561078c57815f5160206139fc5f395f51905f525f1c6001600160a01b031663a322c40e8684815181106116c3576116c36135ab565b60200260200101516040518263ffffffff1660e01b81526004016116e991815260200190565b5f60405180830381865afa158015611703573d5f5f3e3d5ffd5b505050506040513d5f823e601f3d908101601f1916820160405261172a919081019061357a565b60405160200161173b9291906135bf565b60405160208183030381529060405291506001845161175a91906135d3565b811015611784578160405160200161177291906135f2565b60405160208183030381529060405291505b600101611689565b6040805180820190915260078152600160208201526117ac8484836122e3565b816040516020016117bd9190613749565b60408051601f198184030181528282525f87815260036020529190912090916117e79086906133ed565b908152602001604051809103902090816118019190613473565b5060055460ff16156105e0576040805180820190915260018152605b60f81b60208201525f5b835181101561078c57816118885f5160206139fc5f395f51905f525f1c6001600160a01b03166371aad10d878581518110611864576118646135ab565b60200260200101516040518263ffffffff1660e01b81526004016106e49190612d7a565b6040516020016118999291906135bf565b6040516020818303038152906040529150600184516118b891906135d3565b8110156118e257816040516020016118d091906135f2565b60405160208183030381529060405291505b600101611827565b610a8d5f5160206139fc5f395f51905f525f1c6001600160a01b0316633408e4706040518163ffffffff1660e01b8152600401602060405180830381865afa158015611938573d5f5f3e3d5ffd5b505050506040513d601f19601f8201168201806040525081019061195c919061362a565b8383610ef3565b60408051808201909152600181525f60208201526119828484836122e3565b6040805183151560208201520160408051601f198184030181528282525f87815260036020529190912090916119b99086906133ed565b908152602001604051809103902090816119d39190613473565b5060055460ff16156105e0576105e0846119fb835f0151600781111561056657610566612fef565b6040516338ee73ed60e11b8152851515600482015286905f5160206139dc5f395f51905f52906371dce7da9060240161059a565b610a8d5f5160206139fc5f395f51905f525f1c6001600160a01b0316633408e4706040518163ffffffff1660e01b8152600401602060405180830381865afa158015611a7d573d5f5f3e3d5ffd5b505050506040513d601f19601f82011682018060405250810190611aa1919061362a565b8383611963565b610a8d5f5160206139fc5f395f51905f525f1c6001600160a01b0316633408e4706040518163ffffffff1660e01b8152600401602060405180830381865afa158015611af6573d5f5f3e3d5ffd5b505050506040513d601f19601f82011682018060405250810190611b1a919061362a565b838361178c565b60408051808201909152600381525f6020820152611b408484836122e3565b60408051602081018490520160408051601f198184030181528282525f8781526003602052919091209091611b769086906133ed565b90815260200160405180910390209081611b909190613473565b5060055460ff16156105e0576105e084611bb8835f0151600781111561056657610566612fef565b604051631623433d60e31b81526004810186905286906105db905f5160206139dc5f395f51905f529063b11a19e8906024016106e4565b604080518082019091526006815260016020820152611c0f8484836122e3565b81604051602001611c2091906137ac565b60408051601f198184030181528282525f8781526003602052919091209091611c4a9086906133ed565b90815260200160405180910390209081611c649190613473565b5060055460ff16156105e0576040805180820190915260018152605b60f81b60208201525f5b835181101561078c5781611cb6858381518110611ca957611ca96135ab565b602002602001015161263b565b604051602001611cc79291906135bf565b604051602081830303815290604052915060018451611ce691906135d3565b811015611d105781604051602001611cfe91906135f2565b60405160208183030381529060405291505b600101611c8a565b808015611d9157506040516364af255d60e01b81525f5160206139dc5f395f51905f52906364af255d90611d50906004908101613803565b602060405180830381865afa158015611d6b573d5f5f3e3d5ffd5b505050506040513d601f19601f82011682018060405250810190611d8f919061381d565b155b15611daf576040516305d79a4360e31b815260040160405180910390fd5b6005805460ff1916911515919091179055565b604080518082019091526004815260016020820152611de28484836122e3565b81604051602001611df39190612c2d565b60408051601f198184030181528282525f8781526003602052919091209091611e1d9086906133ed565b90815260200160405180910390209081611e379190613473565b5060055460ff16156105e0576040805180820190915260018152605b60f81b60208201525f5b835181101561078c57815f5160206139fc5f395f51905f525f1c6001600160a01b0316636900a3ae868481518110611e9757611e976135ab565b60200260200101516040518263ffffffff1660e01b8152600401611ebd91815260200190565b5f60405180830381865afa158015611ed7573d5f5f3e3d5ffd5b505050506040513d5f823e601f3d908101601f19168201604052611efe919081019061357a565b604051602001611f0f9291906135bf565b604051602081830303815290604052915060018451611f2e91906135d3565b811015611f585781604051602001611f4691906135f2565b60405160208183030381529060405291505b600101611e5d565b610a8d5f5160206139fc5f395f51905f525f1c6001600160a01b0316633408e4706040518163ffffffff1660e01b8152600401602060405180830381865afa158015611fae573d5f5f3e3d5ffd5b505050506040513d601f19601f82011682018060405250810190611fd2919061362a565b83836115ee565b6040805180820190915260018082526020820152611ff88484836122e3565b816040516020016120099190613838565b60408051601f198184030181528282525f87815260036020529190912090916120339086906133ed565b9081526020016040518091039020908161204d9190613473565b5060055460ff16156105e0576040805180820190915260018152605b60f81b60208201525f5b835181101561078c57815f5160206139fc5f395f51905f525f1c6001600160a01b03166371dce7da8684815181106120ad576120ad6135ab565b60200260200101516040518263ffffffff1660e01b81526004016120d5911515815260200190565b5f60405180830381865afa1580156120ef573d5f5f3e3d5ffd5b505050506040513d5f823e601f3d908101601f19168201604052612116919081019061357a565b6040516020016121279291906135bf565b60405160208183030381529060405291506001845161214691906135d3565b811015612170578160405160200161215e91906135f2565b60405160208183030381529060405291505b600101612073565b610a8d5f5160206139fc5f395f51905f525f1c6001600160a01b0316633408e4706040518163ffffffff1660e01b8152600401602060405180830381865afa1580156121c6573d5f5f3e3d5ffd5b505050506040513d601f19601f820116820180604052508101906121ea919061362a565b83836105e6565b610a8d5f5160206139fc5f395f51905f525f1c6001600160a01b0316633408e4706040518163ffffffff1660e01b8152600401602060405180830381865afa15801561223f573d5f5f3e3d5ffd5b505050506040513d601f19601f82011682018060405250810190612263919061362a565b838361113e565b610a8d5f5160206139fc5f395f51905f525f1c6001600160a01b0316633408e4706040518163ffffffff1660e01b8152600401602060405180830381865afa1580156122b8573d5f5f3e3d5ffd5b505050506040513d601f19601f820116820180604052508101906122dc919061362a565b8383611fd9565b5f8381526004602052604080822090516122fe9085906133ed565b908152604080519182900360200182208282019091528054829060ff16600781111561232c5761232c612fef565b600781111561233d5761233d612fef565b81529054610100900460ff16151560209091015290505f8151600781111561236757612367612fef565b036123dd578160045f8681526020019081526020015f208460405161238c91906133ed565b90815260405190819003602001902081518154829060ff191660018360078111156123b9576123b9612fef565b02179055506020919091015181549015156101000261ff00199091161790556105e0565b6105e08183612664565b606060018260078111156123fd576123fd612fef565b03612422575050604080518082019091526004815263189bdbdb60e21b602082015290565b600282600781111561243657612436612fef565b0361245e5750506040805180820190915260078152666164647265737360c81b602082015290565b600382600781111561247257612472612fef565b0361249a575050604080518082019091526007815266313cba32b9999960c91b602082015290565b60048260078111156124ae576124ae612fef565b036124d35750506040805180820190915260048152631d5a5b9d60e21b602082015290565b60058260078111156124e7576124e7612fef565b0361250b5750506040805180820190915260038152621a5b9d60ea1b602082015290565b600682600781111561251f5761251f612fef565b03612546575050604080518082019091526006815265737472696e6760d01b602082015290565b600782600781111561255a5761255a612fef565b03612580575050604080518082019091526005815264627974657360d81b602082015290565b50506040805180820190915260048152636e6f6e6560e01b602082015290565b5f6125aa8561269f565b90505f8185856040516020016125c293929190613871565b60408051601f19818403018152908290526351ac6a3360e01b825291505f5160206139dc5f395f51905f52906351ac6a33906126069086905f9086906004016138bb565b5f604051808303815f87803b15801561261d575f5ffd5b505af115801561262f573d5f5f3e3d5ffd5b50505050505050505050565b60608160405160200161264e919061396b565b6040516020818303038152906040529050919050565b61266e828261282c565b610a8d5761267b81612873565b61268483612873565b60405163b02cf71d60e01b8152600401610c7d929190613991565b60605f5b60015481101561280f5782612758600183815481106126c4576126c46135ab565b905f5260205f200180546126d7906133f8565b80601f0160208091040260200160405190810160405280929190818152602001828054612703906133f8565b801561274e5780601f106127255761010080835404028352916020019161274e565b820191905f5260205f20905b81548152906001019060200180831161273157829003601f168201915b5050505050610b83565b036128075760018181548110612770576127706135ab565b905f5260205f20018054612783906133f8565b80601f01602080910402602001604051908101604052809291908181526020018280546127af906133f8565b80156127fa5780601f106127d1576101008083540402835291602001916127fa565b820191905f5260205f20905b8154815290600101906020018083116127dd57829003601f168201915b5050505050915050919050565b6001016126a3565b50604051631ff94f8360e11b815260048101839052602401610c7d565b80515f90600781111561284157612841612fef565b8351600781111561285457612854612fef565b14801561286c57508160200151151583602001511515145b9392505050565b60605f612882835f01516128df565b9050826020015115806128a657505f835160078111156128a4576128a4612fef565b145b156128b15792915050565b806040516020016128c291906139be565b604051602081830303815290604052915050919050565b50919050565b606060018260078111156128f5576128f5612fef565b0361291a575050604080518082019091526004815263189bdbdb60e21b602082015290565b600282600781111561292e5761292e612fef565b036129565750506040805180820190915260078152666164647265737360c81b602082015290565b600382600781111561296a5761296a612fef565b03612992575050604080518082019091526007815266313cba32b9999960c91b602082015290565b60048260078111156129a6576129a6612fef565b036129ce5750506040805180820190915260078152663ab4b73a191a9b60c91b602082015290565b60058260078111156129e2576129e2612fef565b0361250b57505060408051808201909152600681526534b73a191a9b60d11b602082015290565b634e487b7160e01b5f52604160045260245ffd5b604051608081016001600160401b0381118282101715612a3f57612a3f612a09565b60405290565b604051601f8201601f191681016001600160401b0381118282101715612a6d57612a6d612a09565b604052919050565b5f6001600160401b03821115612a8d57612a8d612a09565b50601f01601f191660200190565b5f82601f830112612aaa575f5ffd5b8135602083015f612ac2612abd84612a75565b612a45565b9050828152858383011115612ad5575f5ffd5b828260208301375f92810160200192909252509392505050565b5f5f5f60608486031215612b01575f5ffd5b8335925060208401356001600160401b03811115612b1d575f5ffd5b612b2986828701612a9b565b93969395505050506040919091013590565b5f6001600160401b03821115612b5357612b53612a09565b5060051b60200190565b5f82601f830112612b6c575f5ffd5b8135612b7a612abd82612b3b565b8082825260208201915060208360051b860101925085831115612b9b575f5ffd5b602085015b83811015612bb8578035835260209283019201612ba0565b5095945050505050565b5f5f5f60608486031215612bd4575f5ffd5b8335925060208401356001600160401b03811115612bf0575f5ffd5b612bfc86828701612a9b565b92505060408401356001600160401b03811115612c17575f5ffd5b612c2386828701612b5d565b9150509250925092565b602080825282518282018190525f918401906040840190835b81811015612c64578351835260209384019390920191600101612c46565b509095945050505050565b5f5f60408385031215612c80575f5ffd5b82356001600160401b03811115612c95575f5ffd5b612ca185828601612a9b565b92505060208301356001600160401b03811115612cbc575f5ffd5b612cc885828601612a9b565b9150509250929050565b5f5f60408385031215612ce3575f5ffd5b82356001600160401b03811115612cf8575f5ffd5b612d0485828601612a9b565b95602094909401359450505050565b5f60208284031215612d23575f5ffd5b81356001600160401b03811115612d38575f5ffd5b612d4484828501612a9b565b949350505050565b5f81518084528060208401602086015e5f602082860101526020601f19601f83011685010191505092915050565b602081525f61286c6020830184612d4c565b5f5f5f60608486031215612d9e575f5ffd5b8335925060208401356001600160401b03811115612dba575f5ffd5b612dc686828701612a9b565b92505060408401356001600160401b03811115612de1575f5ffd5b612c2386828701612a9b565b5f82601f830112612dfc575f5ffd5b8135612e0a612abd82612b3b565b8082825260208201915060208360051b860101925085831115612e2b575f5ffd5b602085015b83811015612bb85780356001600160401b03811115612e4d575f5ffd5b612e5c886020838a0101612a9b565b84525060209283019201612e30565b5f5f60408385031215612e7c575f5ffd5b82356001600160401b03811115612e91575f5ffd5b612e9d85828601612a9b565b92505060208301356001600160401b03811115612eb8575f5ffd5b612cc885828601612ded565b80356001600160a01b0381168114610c96575f5ffd5b5f5f5f60608486031215612eec575f5ffd5b8335925060208401356001600160401b03811115612f08575f5ffd5b612f1486828701612a9b565b925050612f2360408501612ec4565b90509250925092565b5f82601f830112612f3b575f5ffd5b8135612f49612abd82612b3b565b8082825260208201915060208360051b860101925085831115612f6a575f5ffd5b602085015b83811015612bb857612f8081612ec4565b835260209283019201612f6f565b5f5f5f60608486031215612fa0575f5ffd5b8335925060208401356001600160401b03811115612fbc575f5ffd5b612fc886828701612a9b565b92505060408401356001600160401b03811115612fe3575f5ffd5b612c2386828701612f2c565b634e487b7160e01b5f52602160045260245ffd5b602081525f825180516008811061301c5761301c612fef565b80602085015250602081015115156040840152506020830151606080840152612d446080840182612d4c565b5f5f60408385031215613059575f5ffd5b82356001600160401b0381111561306e575f5ffd5b61307a85828601612a9b565b92505060208301356001600160401b03811115613095575f5ffd5b612cc885828601612b5d565b5f602082840312156130b1575f5ffd5b5035919050565b5f5f604083850312156130c9575f5ffd5b8235915060208301356001600160401b03811115612cbc575f5ffd5b5f5f604083850312156130f6575f5ffd5b82356001600160401b0381111561310b575f5ffd5b61311785828601612a9b565b92505060208301356001600160401b03811115613132575f5ffd5b612cc885828601612f2c565b5f5f5f60608486031215613150575f5ffd5b8335925060208401356001600160401b0381111561316c575f5ffd5b61317886828701612a9b565b92505060408401356001600160401b03811115613193575f5ffd5b612c2386828701612ded565b5f5f604083850312156131b0575f5ffd5b82356001600160401b038111156131c5575f5ffd5b6131d185828601612a9b565b9250506131e060208401612ec4565b90509250929050565b80151581146131f6575f5ffd5b50565b5f5f5f6060848603121561320b575f5ffd5b8335925060208401356001600160401b03811115613227575f5ffd5b61323386828701612a9b565b9250506040840135613244816131e9565b809150509250925092565b5f5f60408385031215613260575f5ffd5b82356001600160401b03811115613275575f5ffd5b61328185828601612a9b565b9250506020830135613292816131e9565b809150509250929050565b5f602082840312156132ad575f5ffd5b813561286c816131e9565b5f82601f8301126132c7575f5ffd5b81356132d5612abd82612b3b565b8082825260208201915060208360051b8601019250858311156132f6575f5ffd5b602085015b83811015612bb857803561330e816131e9565b8352602092830192016132fb565b5f5f5f6060848603121561332e575f5ffd5b8335925060208401356001600160401b0381111561334a575f5ffd5b61335686828701612a9b565b92505060408401356001600160401b03811115613371575f5ffd5b612c23868287016132b8565b5f5f6040838503121561338e575f5ffd5b82356001600160401b038111156133a3575f5ffd5b6133af85828601612a9b565b92505060208301356001600160401b038111156133ca575f5ffd5b612cc8858286016132b8565b5f81518060208401855e5f93019283525090919050565b5f61286c82846133d6565b600181811c9082168061340c57607f821691505b6020821081036128d957634e487b7160e01b5f52602260045260245ffd5b601f82111561346e57805f5260205f20601f840160051c8101602085101561344f5750805b601f840160051c820191505b818110156107d2575f815560010161345b565b505050565b81516001600160401b0381111561348c5761348c612a09565b6134a08161349a84546133f8565b8461342a565b6020601f8211600181146134d2575f83156134bb5750848201515b5f19600385901b1c1916600184901b1784556107d2565b5f84815260208120601f198516915b8281101561350157878501518255602094850194600190920191016134e1565b508482101561351e57868401515f19600387901b60f8161c191681555b50505050600190811b01905550565b5f82601f83011261353c575f5ffd5b815161354a612abd82612a75565b81815284602083860101111561355e575f5ffd5b8160208501602083015e5f918101602001919091529392505050565b5f6020828403121561358a575f5ffd5b81516001600160401b0381111561359f575f5ffd5b612d448482850161352d565b634e487b7160e01b5f52603260045260245ffd5b5f612d446135cd83866133d6565b846133d6565b81810381811115610c9057634e487b7160e01b5f52601160045260245ffd5b5f6135fd82846133d6565b600b60fa1b81526001019392505050565b5f61361982846133d6565b605d60f81b81526001019392505050565b5f6020828403121561363a575f5ffd5b5051919050565b5f60208284031215613651575f5ffd5b81516001600160401b03811115613666575f5ffd5b820160808185031215613677575f5ffd5b61367f612a1d565b81516001600160401b03811115613694575f5ffd5b6136a08682850161352d565b8252506020828101519082015260408201516001600160401b038111156136c5575f5ffd5b6136d18682850161352d565b60408301525060608201516001600160401b038111156136ef575f5ffd5b6136fb8682850161352d565b606083015250949350505050565b602080825282518282018190525f918401906040840190835b81811015612c645783516001600160a01b0316835260209384019390920191600101613722565b5f602082016020835280845180835260408501915060408160051b8601019250602086015f5b828110156137a057603f1987860301845261378b858351612d4c565b9450602093840193919091019060010161376f565b50929695505050505050565b5f602082016020835280845180835260408501915060408160051b8601019250602086015f5b828110156137a057603f198786030184526137ee858351612d4c565b945060209384019391909101906001016137d2565b602081016009831061381757613817612fef565b91905290565b5f6020828403121561382d575f5ffd5b815161286c816131e9565b602080825282518282018190525f918401906040840190835b81811015612c645783511515835260209384019390920191600101613851565b61121760f11b81525f61388760028301866133d6565b601760f91b815261389b60018201866133d6565b9050601760f91b81526138b160018201856133d6565b9695505050505050565b606081525f6138cd6060830186612d4c565b82810360208401525f85546138e1816133f8565b8084526001821680156138fb57600181146139175761394b565b60ff1983166020860152602082151560051b860101935061394b565b885f5260205f205f5b8381101561394257815460208289010152600182019150602081019050613920565b86016020019450505b50505083810360408501526139608186612d4c565b979650505050505050565b601160f91b81525f61398060018301846133d6565b601160f91b81526001019392505050565b604081525f6139a36040830185612d4c565b82810360208401526139b58185612d4c565b95945050505050565b5f6139c982846133d6565b615b5d60f01b8152600201939250505056fe0000000000000000000000007109709ecfa91a80626ff3989d68f67f5b1dd12d885cb69240a935d632d79c317109709ecfa91a80626ff3989d68f67f5b1dd12da26469706673582212203d290f672e34bf89f3ce3d3d00b161de1719f5ae474d9dfee5a01f35f5dbd7b964736f6c634300081f00330000000000000000000000007109709ecfa91a80626ff3989d68f67f5b1dd12d","linkReferences":{}},"methodIdentifiers":{"get(string)":"693ec85e","get(uint256,string)":"805da4ad","getChainIds()":"1d776323","getRpcUrl()":"43ec8b6a","getRpcUrl(uint256)":"7df3ef12","resolveChainId(string)":"3f3a7588","set(string,address)":"a815ff15","set(string,address[])":"88c63d45","set(string,bool)":"ba0ff22c","set(string,bool[])":"fa3c074a","set(string,bytes)":"2b29c0fa","set(string,bytes32)":"2e3196a5","set(string,bytes32[])":"e6053250","set(string,bytes[])":"c91ca7ba","set(string,int256)":"2ef8ba74","set(string,int256[])":"de0fc9b3","set(string,string)":"e942b516","set(string,string[])":"59b39526","set(string,uint256)":"8a42ebe9","set(string,uint256[])":"7b8fed81","set(uint256,string,address)":"5eba0df0","set(uint256,string,address[])":"61141c97","set(uint256,string,bool)":"b3a64001","set(uint256,string,bool[])":"e298d00b","set(uint256,string,bytes)":"4d85ce80","set(uint256,string,bytes32)":"cf1cfa99","set(uint256,string,bytes32[])":"08f7b4b2","set(uint256,string,bytes[])":"93dbe6e0","set(uint256,string,int256)":"07d79d9a","set(uint256,string,int256[])":"8be19924","set(uint256,string,string)":"65560950","set(uint256,string,string[])":"cf72a2f3","set(uint256,string,uint256)":"22dc48fd","set(uint256,string,uint256[])":"db0075df","writeUpdatesBackToFile(bool)":"d6698dc4"},"id":14}